:020000040800F2
:10000000A8050020598E0008F5590008FF020008D5
:10001000F7590008F9590008FB59000800000000D2
:10002000000000000000000000000000FD59000872
:10003000FF59000800000000470200086907000897
:10004000A58E0008A58E0008A58E0008A58E0008C4
:10005000A58E0008A58E0008E55D0008F75D000884
:10006000095E00081B5E00082D5E0008A58E0008D2
:10007000A58E0008A58E0008A58E0008A58E000894
:10008000A58E0008A58E0008A58E0008A58E000884
:10009000A58E0008A58E0008A58E00083F5E00080A
:1000A000A58E0008A58E0008A58E0008A58E000864
:1000B000A58E0008A58E0008A58E0008A58E000854
:1000C000A58E0008A58E0008A58E0008A58E000844
:1000D000A58E000801660008A58E0008A58E000800
:1000E0006D5E0008A58E0008A58E0008A58E00088C
:1000F000A58E0008A58E0008A58E0008A58E000814
:10010000A58E0008A58E0008A58E0008A58E000803
:10011000A58E0008A58E0008A58E0008A58E0008F3
:10012000A58E0008A58E0008A58E0008A58E0008E3
:10013000A58E0008A58E0008A58E0008A58E0008D3
:10014000A58E0008A58E0008A58E0008A58E0008C3
:10015000A58E0008A58E0008A58E0008A58E0008B3
:10016000A58E0008A58E0008A58E0008A58E0008A3
:10017000A58E0008A58E0008A58E000800000000CE
:10018000A58E0008A58E0008A58E0008A58E000883
:10019000A58E0008A58E0008A58E0008A58E000873
:1001A000A58E0008A58E0008A58E000810B5054C88
:1001B000237833B9044B13B10448AFF30080012313
:1001C000237010BDA80500200000000030000108C9
:1001D0000C4B43B10C480D4910B5AFF300800C48EF
:1001E000036823B910BD0A48036833B97047094B47
:1001F000002BF7D0BDE810401847064B002BF5D078
:10020000184700BF0000000030000108AC050020C6
:10021000A803002000000000EFF3108072B67047C2
:1002200080F310887047444A1368012B04D04FF0C4
:1002300001031360414A1060414A116041484FF088
:10024000805101607047EFF3108272B63A4801683E
:1002500051B34FF0000101603848016891B1EFF3EC
:1002600009811EF0100F08BF21ED108B21E9F00F5E
:100270004FF000041EF0100F08BF012441F8044D98
:10028000006801602E490968096808C9B1E8F00FE3
:10029000002B18BFB1EC108B81F309884EF0100EC3
:1002A000002B18BF2EF0100E82F310884EF0040EB3
:1002B000704723490860EFF3148222F0040282F3AE
:1002C00014881E494FF0000008601B494FF00100E0
:1002D00008601D484FF47F01D0F8002041EA020178
:1002E000016018484FF080510160184800680068AC
:1002F00000BF80F3088861B662B6704700BFEFF3B5
:1003000008801EF0040F01D0EFF3098020E9F00F00
:1003100040F804ED40F804ED1EF0040F02D080F325
:10032000098801E080F3088800B503F011FB5DF84F
:1003300004EB4EF0040E7047F42B0020F02B00204D
:10034000EC2B002004ED00E020ED00E008ED00E0E3
:10035000034613F8012B002AFBD1181A0138704705
:1003600053B94AB9002908BF00281CBF4FF0FF311C
:100370004FF0FF3000F07AB9ADF1080C6DE904CE12
:1003800000F006F8DDF804E0DDE9022304B0704770
:100390002DE9F0478C460D460446089E002B51D1AE
:1003A0008A4217466DD9B2FA82FEBEF1000F0BD019
:1003B000CEF1200C01FA0EF520FA0CFC02FA0EF731
:1003C0004CEA050C00FA0EF44FEA174A250CBCFB68
:1003D000FAF81FFA87F90AFB18CC45EA0C4508FB26
:1003E00009F3AB420AD9ED1908F1FF3280F02381FD
:1003F000AB4240F22081A8F102083D44ED1AA4B2BC
:10040000B5FBFAF00AFB105544EA054400FB09F974
:10041000A14509D9E41900F1FF3380F00A81A14513
:1004200040F2078102383C44A4EB090440EA08404A
:100430000021002E61D024FA0EF400233460736092
:10044000BDE8F0878B4207D9002E54D0002186E802
:1004500021000846BDE8F087B3FA83F1002940F097
:100460008E80AB4202D3824200F2FA80841A65EB9E
:1004700003050120AC46002E3FD086E81010BDE8F1
:10048000F08712B90127B7FBF2F7B7FA87FEBEF182
:10049000000F34D1EB1B3A0C1FFA87FC0121B3FB90
:1004A000F2F8250C02FB183345EA03450CFB08F370
:1004B000AB4207D9ED1908F1FF3002D2AB4200F28E
:1004C000D1808046ED1AA3B2B5FBF2F002FB1055C5
:1004D00043EA05440CFB00FCA44507D9E41900F1EC
:1004E000FF3302D2A44500F2B8801846A4EB0C04F6
:1004F00040EA08409DE731463046BDE8F087CEF13E
:10050000200405FA0EF307FA0EF720FA04F83A0C65
:1005100025FA04F448EA0308B4FBF2F14FEA18455F
:1005200002FB11441FFA87FC45EA044501FB0CF36A
:10053000AB4200FA0EF409D9ED1901F1FF3080F059
:100540008A80AB4240F2878002393D44EB1A1FFAA1
:1005500088F5B3FBF2F002FB103345EA034500FBDC
:100560000CF3AB4207D9ED1900F1FF386FD2AB4263
:100570006DD902383D44EB1A40EA01418FE7C1F1E1
:10058000200722FA07F88B4005FA01F448EA030332
:1005900020FA07FE4FEA134CFD404EEA040EB5FB6D
:1005A000FCF94FEA1E440CFB19551FFA83F844EA84
:1005B000054509FB08F4AC4202FA01F200FA01FA1F
:1005C00008D9ED1809F1FF3043D2AC4241D9A9F165
:1005D00002091D442D1B1FFA8EFEB5FBFCF00CFB1F
:1005E00010554EEA054400FB08F8A04507D9E41869
:1005F00000F1FF3529D2A04527D902381C4440EA32
:100600000940A4EB0804A0FB02894C45C6464D46B0
:1006100015D312D056B1BAEB0E0364EB050404FAFD
:1006200007F7CB401F43CC40376074600021BDE822
:10063000F0871846F8E69046E0E6C245EAD2B8EB05
:10064000020E69EB03050138E4E72846D7E7404688
:1006500091E78146BEE7014678E702383C4445E72A
:10066000084608E7A8F102083D442BE7704700BFA1
:1006700000487047C40500200048704764250020EA
:1006800070B594B03022002108A808F02AFC00249C
:100690000394049405940694079401941C4B1A6CDB
:1006A00042F080521A641B6C03F080530193019B4B
:1006B0000294184B1A6842F440421A601B6803F413
:1006C00040430293029B012308934FF48033099324
:1006D00002250E954FF480030F930F261096D82312
:1006E000119312950423139308A807F057F807F005
:1006F00091FE0396049505944FF4A05306934FF48E
:1007000080530793052103A807F090FA14B070BD39
:10071000003802400070004010B507F065FFFFF799
:10072000AFFF07F031FA0E4BA3FB0030800907F052
:100730000FFFB42005F04AF805F0B6FB05F080FF86
:1007400003F0E8F9074804F0E1F8FFF791FF0446E9
:10075000FFF792FF0146204604F08CF910BD00BF60
:10076000D34D6210B890000808B503F04FFD03F0B8
:100770008DF903F061FD08BD10B5044604F0AEFC30
:1007800009E0621C21780C4B59600B4B1B6813F07D
:10079000800FFAD01446237853B10A2BF1D10D22E1
:1007A000054B5A60044B1B6813F0800FFAD0E8E742
:1007B00004F0A0FC10BD00BF0010014002681A4BFD
:1007C0009A4200D0704710B588B00021019103F51E
:1007D00094331A6B42F001021A631A6B02F00102A1
:1007E0000192019A02915A6C42F010025A645B6CB9
:1007F00003F010030293029B4FF400730393022350
:10080000049301220592069307230793074C03A93B
:10081000204607F0E1FA4FF48063039303A92046D2
:1008200007F0DAFA08B010BD0010014000000240E5
:100830000268094B9A4200D0704782B000230193AE
:10084000064B1A6C42F002021A641B6C03F002039E
:100850000193019B02B0EFE7000400400038024022
:1008600000B587B00023019302930393049305938B
:1008700002680D4B9A4202D007B05DF804FB0023DA
:1008800000930A4B1A6B42F002021A631B6B03F0CF
:1008900002030093009B022301930293059301A995
:1008A000034807F099FAE7E70004004000380240E7
:1008B0000004024008B5054803F07EF9044B1860B7
:1008C00008B1002008BD4FF0FF3008BDC0900008FF
:1008D0006425002008B50421024B186806F070F961
:1008E000002008BD6425002008B50421024B1868CB
:1008F00006F0E2F9002008BD6425002008B5084A8A
:1009000092FBF0F2074BA3FB02035B0903FB1123ED
:1009100004210548006806F065F9002008BD00BF05
:1009200000CA9A3B1F85EB51642500202DE9F04158
:10093000002441E05A8801325A8056F82720538813
:10094000022B1AD0232B1FD0232B33D9032313724E
:1009500002352D4B53F8250083885BB341882B4A21
:10096000A2FB03231B09B1FBF3F203FB12139BB29F
:1009700003BBC368F3B198471CE000231372104611
:10098000D368BBB1984715E0022313721D441E4B78
:1009900053F82500C3686BB198470BE0B8F1220FFC
:1009A00008D90235184B53F8250004230372C36895
:1009B00003B198470134E4B2134B1B789C4220D218
:1009C0002546114EA71C56F82730B3F80280D88868
:1009D00006F094F856F827301A789042AAD00022F0
:1009E0005A80A8F102039BB2202BD7D80235064BC0
:1009F00053F8250001230372C368002BDAD098470F
:100A0000D8E7BDE8F08100BF68250020CDCCCCCC74
:100A100010B5044603787BB10321C08806F056F870
:100A20000020608005232372064A1378591C117038
:100A3000023342F8234010BD0221C08806F046F878
:100A4000EEE700BF682500200D4B5B6893B900B549
:100A500083B006230093142300220A490A4804F0B5
:100A600079FD074B586040B104F08CFD002003B0C5
:100A70005DF804FB4FF0FF3070470020F7E700BF40
:100A8000682500202D090008C890000800230B2BC2
:100A900026D810B40AE0134C34F81240124A22F857
:100AA000134010E00133DBB20B2B15D81A18D2B269
:100AB0000B2AF0D90C3AD2B20A4C34F81220520068
:100AC000094C24F813200029ECD0074C34F81320EB
:100AD0008A4024F81320E5E700205DF8044B7047B6
:100AE00000207047D090000898250020F0B4354EC3
:100AF000A6FB0054E40804EB84077D00451BEDB21F
:100B0000A4B2A6FB0476F60806EB86067700E41B83
:100B10002D4EA6FB0060C0F347106E1E2B4FBE5D2E
:100B200030442B4E36F81000002D3DD0E4B2012C9D
:100B300035D0032C35D010802248A0FB0142D208CA
:100B400002EB820674000C1BA4B2224E345D92B2FA
:100B5000A0FB0260C00800EB80004600921BD2B2EE
:100B60001948A0FB0101C1F3471140F26C7090FBE2
:100B7000F4F001291BD0012A21D0EAB98100164CDA
:100B800084FB0124CA17C2EB640292B205B90022A9
:100B90001A80801A049B18800020F0BC704740081F
:100BA000C7E7400080B2C6E700201080C4E7C0F36A
:100BB0004F01084480B2DEE7C0F34F02E6E7024689
:100BC000E4E700BFCDCCCCCC1F85EB51F090000802
:100BD00098250020E890000867666666002301E01B
:100BE00002339BB2C218927F002AF9D1580870478D
:100BF000002301E0CA540133C25C002AFAD100206C
:100C0000C854704710B582B01346490044180131EA
:100C10000844817FA07F141D00940233FFF766FF14
:100C2000022002B010BD08B501210020FFF72EFF01
:100C3000002008BD00B583B02D2804D0732815D03E
:100C400003B05DF804FB0DF107020521114800F027
:100C50009DFD9DF80730012BF2D9013B02AA02F855
:100C6000013D04210B4800F091FDE9E70DF1070279
:100C70000521084800F08AFD9DF80730622BDFD877
:100C8000013302AA02F8013D0421024800F07EFD72
:100C9000D6E700BF242D002010B5722804D0732899
:100CA0001ED02D2812D010BD104B1B7843B9002246
:100CB00001210E4800F06AFD0C4800F0A7FD10BDB0
:100CC00000221146094800F061FDF5E7074C0022BB
:100CD0000221204600F05AFD204600F097FD10BD8D
:100CE00000220321014800F051FDDCE7242D002003
:100CF00008B5037A012B02D0032B04D008BDC088AD
:100D0000FFF7CAFF08BDC088FFF794FF08BD0000C9
:100D1000F8B5114D00272F706423AB800F4BEB60AB
:100D20000F4C95E80F0084E80F000E4E86E80F0088
:100D30002D23EB807323F3807223E3802846FFF793
:100D400067FE3046FFF764FE2046FFF761FEFFF7BF
:100D50007BFE3846F8BD00BFB0250020F10C00082E
:100D6000D0250020C025002082B0ADF80600BDF8D7
:100D700006309BB2ADF80630BDF806309BB2024A91
:100D8000138002B0704700BFFEFF076082B0ADF86D
:100D90000600BDF806309BB2ADF80630BDF806304F
:100DA0009BB2024A538002B0704700BFFEFF07604B
:100DB00082B0054B5B889BB2ADF80630BDF80600EB
:100DC00080B202B0704700BFFEFF0760014B188081
:100DD00059807047FEFF0760024B1A89024B1A8048
:100DE000704700BF882B0020FEFF076070B50646E5
:100DF0000C460A4D6889FFF7B7FF300AFFF7C6FFB8
:100E0000F0B2FFF7C3FFA889FFF7AEFF200AFFF794
:100E1000BDFFE0B2FFF7BAFF70BD00BF882B002016
:100E200008B50138062805D8DFE800F01206080AE0
:100E30000C0E100000210CE040210AE0C02108E067
:100E4000202106E0602104E0A02102E0E02100E092
:100E5000802141F008013620FFF7B8FF08BD0000EF
:100E6000F8B507460E4614460C4D6889FFF77CFF1F
:100E7000380AFFF78BFFF8B2FFF788FFA889FFF762
:100E800073FF300AFFF782FFF0B2FFF77FFF2A8976
:100E9000034B1A80A4B25C80F8BD00BF882B0020F1
:100EA000FEFF076008B588B1104B01229A714FF41C
:100EB000A0721A80F0225A802C221A812B225A8189
:100EC0002A229A810020FFF7ABFF08BD074B0022C2
:100ED0009A71F0221A804FF4A0725A802C221A8143
:100EE0002A225A812B229A81ECE700BF882B00200E
:100EF00000B589B0002200921B4B996B41F00101B3
:100F00009963996B01F00101009100990192196BAD
:100F100041F008011963196B01F008010191019971
:100F200002921A6B42F010021A631B6B03F010035B
:100F30000293029B4EF2B3730393022304930123A3
:100F40000593032306930C2307930DEB0301074836
:100F500006F042FF4FF68073039303A9044806F09E
:100F60003BFF09B05DF804FB00380240000C024072
:100F70000010024038B50546094B1A885C8804FB0E
:100F800002F400210846FFF731FFFFF725FF00229A
:100F900003E0ABB203494B800132A242F9D338BD22
:100FA000882B0020FEFF07602DE9F04395B0002458
:100FB0000094BC4B1A6B42F002021A631B6B03F0E5
:100FC00002030093009B60230F9301261096119655
:100FD0004FF00309CDF848900FA9B34806F0FCFE86
:100FE000B2484FF02043036003F58273436084608E
:100FF000C46004614FF01008C0F814808461C461BB
:1010000044624FF480538362C4624FF480430363AD
:10101000446384634FF48013C3630F2508950994D8
:1010200046230A930E94019502940395079401AA0E
:1010300008A907F0F9FA322004F00AFCD320FFF7E0
:1010400093FEFFF7B5FE9A4FB880FFF7B1FEB88068
:10105000FFF7AEFE0002B880FFF7AAFEBB88184378
:10106000B880CF20FFF780FE2046FFF78FFEC1201B
:10107000FFF78CFE3020FFF789FEED20FFF774FEAE
:101080006420FFF783FE4846FFF780FE1220FFF73B
:101090007DFE8120FFF77AFEE820FFF765FE8520C0
:1010A000FFF774FE4046FFF771FE7A20FFF76EFEF1
:1010B000CB20FFF759FE3920FFF768FE2C20FFF701
:1010C00065FE2046FFF762FE3420FFF75FFE022038
:1010D000FFF75CFEF720FFF747FE2020FFF756FEE4
:1010E000EA20FFF741FE2046FFF750FE2046FFF7BB
:1010F0004DFEC020FFF738FE1B20FFF747FEC12042
:10110000FFF732FE3046FFF741FEC520FFF72CFE09
:101110003020FFF73BFE3020FFF738FEC720FFF7F7
:1011200023FEB720FFF732FE3620FFF71DFE4820D2
:10113000FFF72CFE3A20FFF717FE5520FFF726FE9B
:10114000B120FFF711FE2046FFF720FE1A20FFF71F
:101150001DFEB620FFF708FE0A20FFF717FEA220AB
:10116000FFF714FEF220FFF7FFFD2046FFF70EFE0B
:101170002620FFF7F9FD3046FFF708FEE020FFF7D5
:10118000F3FD2846FFF702FE2A20FFF7FFFD282087
:10119000FFF7FCFD0820FFF7F9FD0E20FFF7F6FD35
:1011A0000820FFF7F3FD5420FFF7F0FDA920FFF71B
:1011B000EDFD4320FFF7EAFD0A20FFF7E7FD284693
:1011C000FFF7E4FD2046FFF7E1FD2046FFF7DEFDD7
:1011D0002046FFF7DBFD2046FFF7D8FDE120FFF7B3
:1011E000C3FD2046FFF7D2FD1520FFF7CFFD1720E6
:1011F000FFF7CCFD0720FFF7C9FD1120FFF7C6FD63
:101200000620FFF7C3FD2B20FFF7C0FD5620FFF798
:10121000BDFD3C20FFF7BAFD0520FFF7B7FD4046B6
:10122000FFF7B4FD2846FFF7B1FD3F20FFF7AEFD05
:101230003F20FFF7ABFD2846FFF7A8FD2B20FFF767
:1012400093FD2046FFF7A2FD2046FFF79FFD3046A5
:10125000FFF79CFD3F20FFF799FD2A20FFF784FD53
:101260002046FFF793FD2046FFF790FD2046FFF74D
:101270008DFDEF20FFF78AFD1120FFF775FD782027
:1012800004F0E6FA2920FFF76FFD2046FFF70AFE7B
:10129000084B1C6040F2FF70FFF76CFE15B0BDE814
:1012A000F08300BF0038024000040240982B002069
:1012B000882B0020948240422DE9F04F83B00090AB
:1012C00088461F469DF830A013F0070318BF01237E
:1012D00003EBD703790811FB03F3DBB20193203A48
:1012E0005FFA82FB44464FF0000946E00BEB4B03EC
:1012F0009A002C4B134413F809504EE02A4B03EB91
:101300000B1313F8095048E00BEBCB039A00274B63
:10131000134413F8095040E0254B1A682146009801
:10132000FFF79EFD6D00EDB20134A4B2214B5B8846
:101330009C4234D2A4EB0803BB4210D00136F6B273
:10134000072E16D815F0800FE6D1BAF1000FE9D1BB
:10135000194B1A6821460098FFF782FDE2E7009BCF
:1013600001339BB21A460093124B1B889A4216D245
:10137000444609F101095FFA89F9019B99450ED2AA
:101380000C2FB3D0102FB9D0182FBDD0202F06D1DD
:101390000A4B03EBCB1313F809500026D0E703B038
:1013A000BDE8F08FF89000086C9500085C9B000881
:1013B00004000020882B002000000020B8A80008AE
:1013C000012202E000FB02F219464B1EDBB20029AB
:1013D000F8D11046704700002DE9F04F83B08346E6
:1013E0008A4691461D469DF830609DF8348000275E
:1013F0003C461CE0700800FB04B008F001030093B9
:1014000033463022514680B2FFF756FF0DE00127E8
:101410007008303200FB04B008F00103009333463B
:10142000D2B2514680B2FFF747FF0134E4B2AC427A
:1014300028D2291BC9B20139C9B20A20FFF7C0FF5F
:10144000B9FBF0F0114AA2FB0032D20802EB820293
:101450005300C21AD2B2002FDAD16B1E9C42D7DAE7
:10146000002AD4D118F0800FC4D1700800FB04B05A
:1014700008F00103009333462022514680B2FFF763
:101480001BFFD2E703B0BDE8F08F00BFCDCCCCCCC2
:101490002DE9F04782B082460D469DF828700B9EDC
:1014A00002441FFA82F90B441FFA83F804460CE049
:1014B000454517D2002300933B4629462046FFF7B7
:1014C000FBFE04EB5704A4B201363278A2F12003EC
:1014D000DBB25E2B06D84C45EAD35FFA8AF43D4472
:1014E000ADB2E5E702B0BDE8F08708B500211020F5
:1014F00005F0F8FA002008BD08B50121102005F01C
:10150000F1FA002008BD08B50021102005F0DEFA30
:10151000FFF7F2FF002008BD08B5102005F0EEFA35
:10152000B0FA80F14909102005F0DCFA002008BD6E
:1015300000B583B001230DF107020179006802F0C4
:10154000DCFB9DF8070003B05DF804FB00B583B039
:1015500002AA02F8011D01230179006802F0E1FBF3
:1015600003B05DF804FB10B50C46FFF7E1FF204126
:1015700010F0010F01D1002010BD012010BD70B589
:1015800004460D461646FFF7D3FF3EB10121A940A0
:101590000143C9B22046FFF7D9FF70BD0121A94020
:1015A00020EA0101C9B2F5E770B582B006460D46E2
:1015B000FF238DF804300821012003F033FB04469B
:1015C00090B1304602F0F8FA2060C0B115B3257131
:1015D000002102F035FB00B31CB1204603F030FBC4
:1015E0000024204602B070BD0F4803F0A5F9314633
:1015F0000E4803F0A1F90E4803F09EF9ECE70A4803
:1016000003F09AF931460B4803F096F9084803F0C5
:1016100093F9E1E720232371DAE7012301AA217975
:10162000206802F07EFBDCE738D800084CD80008C0
:1016300080D8000888D8000808B503F001FB08BD71
:1016400038B500211648FFF7AFFF28B30446002243
:101650001146FFF794FF00212046FFF784FF114D4C
:1016600002460021284603F067F94FF47A7003F030
:10167000AEFE012200212046FFF781FF0021204617
:10168000FFF771FF02460021284603F055F9204676
:10169000FFF7D2FF002038BD4FF0FF3038BD00BF4C
:1016A000D8D80008E0D8000803780BB900207047AC
:1016B00010B50446FEF7B0FD00232370FEF7B0FD21
:1016C000206B02F081FC002010BD03780BB10020DC
:1016D000704710B50446FEF79FFD01232370FEF707
:1016E0009FFD002010BD70B50446FEF795FDA37860
:1016F000012B18D9013BA3700023A380FEF790FDB6
:10170000E36B5E68A378013300252A46012154F873
:101710002300B047FEF780FDE580FEF781FD2378CA
:1017200023B9002070BDE378A370E5E72046FFF7FA
:10173000BBFFF6E730B583B00446FEF76DFDA37836
:10174000E27893421BD20133A3700023A380FEF7FB
:1017500067FDE36B5D68A37801330DF1060201219B
:1017600054F82300A847FEF757FDBDF80630E38084
:10177000FEF756FD23782BB9002003B030BD0123BE
:10178000A370E2E72046FFF78FFFF5E738B5044680
:101790001546062907D8DFE801F004080B0E111DD5
:1017A0002000FFF781FF002038BDFFF78EFFFAE72A
:1017B000FFF799FFF7E7FFF7BDFFF4E7FEF72CFD12
:1017C0002B786370FEF72CFDA36BDB68611C002097
:1017D0009847E8E743781370E5E703781370E2E78A
:1017E00038B5C3780A2B0DD00D460446FEF714FD1C
:1017F000E3789A1C44F822500133E370FEF710FDA1
:10180000002038BD4FF0FF3038BD0000F0B589B082
:1018100005463C4B019318230093EF220021084614
:10182000FFF736FE002409E0EB6B5B68A01C02AA00
:10183000002155F8200098470134E4B2EB789C422F
:10184000F2D32B78002B53D02F4B019320230093FE
:10185000E0229E210020FFF71BFEEB6B5E68AB7859
:1018600002AC01332246002155F82300B047019411
:101870002024009423466422BE210020FFF708FEA6
:10188000224B019300942346A022DE210020FFF783
:10189000FFFDAB88642606FB03F6EB8896FBF3F6A8
:1018A0001B4B019300942346C022FE210020FFF72A
:1018B000EFFD0027019700940323B2B2FE218020A0
:1018C000FFF78AFD134B01930094234680224FF4C7
:1018D0008F713846FFF7DCFD6A7801970094032387
:1018E0004FF48F714020FFF777FD384609B0F0BD07
:1018F000094B019320230093E0229E210020FFF753
:10190000C7FDAAE700D9000824D9000834D9000887
:1019100044D9000854D9000814D9000830B587B05C
:1019200004460EE0E26B9568A078013001AA54F8F5
:101930002000A84710F0FF050ED1A288E3889A4244
:1019400016D22378DBB9A379A188CAB29B1ADBB27D
:10195000142BE7D91423E5E7A36B1B69C1B201A8D7
:101960009847A3881D44A5802046FFF74FFFE4E772
:101970002046FFF7DFFE2046FFF748FFE1E7A36BB5
:101980009B6898474FF0FF31206B02F0A7FAA36BDA
:101990005B689847D5E70000274B1B78012B41D0A7
:1019A000C378002B41D030B585B00446C36B1B68AB
:1019B00098470121217003236370A1700025A58041
:1019C000E36B5B680DF10E02A0689847BDF80E301E
:1019D000E380A36B1B689847A36BDB68611C2846F8
:1019E00098472A462946154802F04CFA2063F8B178
:1019F0001423019300934FF40073224610491148B9
:101A000003F03AFC606338B103F016FD01220A4B83
:101A10001A70284605B030BD206B02F044FA4FF032
:101A2000FF30F7E74FF0FF3070474FF0FF3070475F
:101A30004FF0FF30EEE700BFE025002060D900083E
:101A40001D1900086CD90008034B1B6813B901224B
:101A5000014B1A60704700BFE4250020816B8A8823
:101A6000CB889A4207D09A420BD8406BC0F38F20A4
:101A70009B1AC01A70478B682BB1406BC0F38F2044
:101A80007047D01A70470020704708B5FFF7E6FF8F
:101A900008BD826B936813B109B100239360D388AA
:101AA000194489B2D180436BC3F38F23994204D385
:101AB000B1FBF3F003FB1011D180704710B5846BBC
:101AC000E288A3889A4212D80B449BB2A380416B50
:101AD000C1F38F218B421BD3B3FBF1F001FB103319
:101AE0009BB2A3809A4213D80123A36010E00B4459
:101AF0009BB2A3809A420BD8426BC2F38F229342CF
:101B000004D3B3FBF2F102FB1133A3800123A360E2
:101B1000A368012B00D010BDFFF796FFA388E380D8
:101B2000F9E708B500238363C363C36A1B681BB16D
:101B300000F13001984708BD002008BD02290AD0F5
:101B400010B50346032912D001290AD0C06A44689F
:101B50001846A04710BDC38A43F02003C38200206B
:101B60007047C28A22F02002C282002010BDE2B17A
:101B70005168C1F38F20596BC1F38F21884203D084
:101B8000997E09B1072010BD03F1300492E80300EB
:101B900084E80300997E09B9002010BDD96A0C6859
:101BA00011461846A047002010BD002010BD2DE9A9
:101BB000F0411D46002B5FD014460746038B13F4FB
:101BC000806F04D113F4006F19D12E4643E0D0F892
:101BD0003C802E4604E04FF0FF31404600F001FB10
:101BE00056B1FB6A9B68217838469847B0F1FF3FB1
:101BF000F1D00134013EF3E7A81BBDE8F081A8460F
:101C0000C66B4FF0FF332A462146301D00F05FFBC4
:101C100098B9FEF701FB3368012B0BD00123336029
:101C2000FEF7FEFAFB6A1E6902232A462146384661
:101C3000B04706E0FEF7F4FA03E002F0D7FB4FF0FE
:101C400000084046BDE8F081FA6A926814F8011B6A
:101C500038469047013E66B122780A2AF4D13B8B80
:101C600013F0400FF0D0FB6A9B680D21384698476F
:101C7000EAE7A81BBDE8F0811846BDE8F081000046
:101C80002DE9F8431C46002B00F0998007461546C5
:101C9000038B13F4807F13D113F4007F3CD12646CD
:101CA0005CB1FB6ADB6838469847B0F1FF3F04D06F
:101CB00005F8010B013C0A28F2D1301BBDE8F8837E
:101CC000A046866B0FE0B268AAB9FEF7A9FAA8EBA6
:101CD0000400BDE8F883B368012B1AD0FEF7A0FA20
:101CE00005F8019B013C002CF1D0FEF795FAF38832
:101CF000B2889342E7D0326812F8039001339BB266
:101D0000F3807A6BC2F38F229342E4D30023F380F3
:101D1000E1E70023B360E1E72646FEF77DFA80465F
:101D20007A6B284B1340CBB9BA6B1368012B12D0D6
:101D300001231360FA6AD2F81090224629463846E9
:101D4000C84700244046FEF76BFA1CB3204602F059
:101D50004DFB00261EE06FF00604F3E7BE6B38462D
:101D6000FFF793FE844200DB0446F38819197A6B6F
:101D7000C2F38F22914210D231682246194428467C
:101D800002F06FFB21463846FFF783FE4046FEF720
:101D900047FA26463046BDE8F8833168D21A19441E
:101DA000284602F05EFB7B6BC3F38F23F288981A00
:101DB0002244D21A3168284402F053FBE2E7184665
:101DC000BDE8F88300FCFF03837E012B01D90020CE
:101DD000704710B50446038B13F4807F1FD113F4B2
:101DE000007F13D0426B264B13404BBB806B02F03D
:101DF00027FFE36A5B684FF4007211212046984781
:101E00000023A363238B23F400732383238B13F416
:101E1000806F19D113F4006F27D1002010BD806BA3
:101E200002F00EFF0023A363238B23F4807323832C
:101E3000E36A5B684FF48072112120469847E5E71A
:101E4000806B02F0FDFED4E7E06B02F0F9FE0023A8
:101E5000E363238B23F480632383E36A5B684FF49B
:101E60008062112120469847D7E7E06B02F0E8FE38
:101E70000023E363238B23F400632383CDE700BFB8
:101E800000FCFF032DE9F04111F4007E04D0C38A69
:101E900013F4007F00F0D98011F4006604D0C38AE7
:101EA00013F4006F00F0D58011F4807304D0C28A5F
:101EB00012F4807F00F0D18011F4806504D0C28AD2
:101EC00012F4806F00F0CD8011F0400F05D1028B2D
:101ED00012F0400F1CD1002400E040240746C9B294
:101EE0000183826BB2B1002B70D041F48071018309
:101EF000FB6B002B71D0002D00F09F803B8B43F4D7
:101F000080633B833B8B1C433C830020BDE8F08116
:101F10004024E3E78BB9BEF1000F54D0426B534B22
:101F200013407BBB042002F0E5FD00230360B8638F
:101F30003B8B43F400733B83DAE7406BC0F38F20A5
:101F40000C3002F0D7FD80460C30C8F800007A6BE8
:101F5000C2F38F22002102F05BFA0023A8F80430BC
:101F6000A8F80630C8F80830C7F838803B8B43F42F
:101F700080733B83FB6A5B684FF4807210213846A4
:101F80009847B5E7406BC0F38F200C3002F0B2FDEC
:101F900080460C30C8F800007A6BC2F38F22002113
:101FA00002F036FA0023A8F80430A8F80630C8F882
:101FB0000830C7F83880FB6A5B684FF40072032171
:101FC00038469847B4E70023836391E7BEF1000FDA
:101FD0008ED041F4007101838AE71DB9AEB90023A8
:101FE000FB638FE70C2002F085FD054600F0ECF85E
:101FF000FD633B8B43F480633B83FB6A5B684FF478
:1020000080621021384698477CE7282002F072FD54
:102010000546002340F8043B0422082100F03DF966
:10202000FD633B8B43F400633B83FB6A5B684FF4C7
:10203000006203213846984764E7002E3FF462AF00
:102040003B8B43F400633B835CE76FF00700BDE824
:10205000F0816FF00700BDE8F0816FF00700BDE888
:10206000F0816FF00700BDE8F08100BF00FCFF03C6
:1020700038B500250575C5610562034D456283626B
:1020800092B201F0C4FD38BD74D90008F0B585B036
:102090000546CBB2013B032B4FD8DFE803F0024BE0
:1020A0007150846B06E0A288E3889A421CD03046C7
:1020B000FEF7B6F8EB6ADB68284698470746B0F1AA
:1020C000FF3F20D0FEF7A8F806462268A388D75421
:1020D000A38801339BB2A3806A6BC2F38F22934221
:1020E000E1D30023A380DEE701339BB2E38001222A
:1020F000A2606A6BC2F38F22934201D30023E38074
:10210000FFF7A2FCD3E7EB69BBB1FEF785F8A28825
:10211000E488A24208D3141BFEF782F86CB1EB6985
:1021200021462846984708E06B6BC3F38F23A41A17
:102130001C1BF1E7C06B00F094F805B0F0BDC66B56
:10214000341D002302AA03A9204600F034F902AA94
:1021500001A9204600F0B4F940B1002333602B6A96
:10216000002BEAD0039928469847E6E7012333601D
:10217000EB6A1C690223029A01992846A047EEE700
:102180000C12426B0F4B1340A3B1FEF745F8064605
:1021900021462846FFF792FC2846FFF776FC0446C6
:1021A0003046FEF73DF8EB69002BC6D021462846A5
:1021B0009847C2E7866BC36921469847002333607E
:1021C000BBE700BF00FCFF0310B50446FEF724F890
:1021D0002346002243F8042BA3606360FEF720F837
:1021E00010BDF0B583B00446019103F011F8054627
:1021F000FEF712F806462368012B2DD0019B6BB326
:1022000000232B63284603F089F8221D05F11403EF
:10221000A1680B60A168A961A3606A61019B002BA2
:1022200009DD05F14C0701AA0021384603F03CFA0C
:10223000384603F0A7F93046FDF7F2FF02F0CCFE76
:102240002D6BFDF7E9FF0646002323603046FDF7BE
:10225000E7FF284603B0F0BD0025F5E76FF0010564
:10226000F4E738B50368012B16D00446FDF7D4FF18
:1022700005462346012243F8042B6068834208D0B8
:10228000143803F0ABF82846FDF7CAFF02F0A4FEAD
:1022900038BD2846FDF7C4FF38BD10B504460362BB
:1022A0000180428000230381438100F110034361D8
:1022B000036100F11803C3618361C80002F01AFCD6
:1022C000E06008B1002010BD6FF0040010BD2DE9E2
:1022D000F04782B0044688469246019302F098FF88
:1022E0000546FDF799FF064600270AE03046FDF750
:1022F00097FF02F071FE2F6BFDF78EFF0646002F51
:102300004CD161892389CB1A228893421FD1019B2A
:10231000002B41D000232B63284602F0FFFF04F17D
:10232000100205F1140361690B606169A9616361C1
:102330006A61019B002BD9DD05F14C0901AA00213E
:10234000484603F0B1F9484603F01CF9CEE7E368CC
:10235000B1FBF2F002FB101292B243F83280E26855
:1023600060892188B0FBF1F301FB13039BB202EB00
:10237000C303C3F804A063890133638104F1180324
:10238000A06983420AD0143803F028F83046FDF7DC
:1023900047FF02F021FE0AE06FF001073046FDF72B
:1023A0003FFF27B9236A13B10221204698473846D8
:1023B00002B0BDE8F0872DE9F04782B004468846B8
:1023C0009246019302F024FF0546FDF725FF0646DD
:1023D00000270AE03046FDF723FF02F0FDFD2F6BDA
:1023E000FDF71AFF0646002F5DD1238962899342CB
:1023F0001FD1019B002B54D000232B63284602F0F1
:102400008DFF04F1180205F11403E1690B60E16925
:10241000A961E3616A61019B002BDBDD05F14C09D9
:1024200001AA0021484603F03FF9484603F0AAF804
:10243000D0E7E0682188B3FBF1F201FB12339BB2D5
:1024400050F83330C8F80030E26820892188B0FBAA
:10245000F1F301FB13039BB202EBC3035B68CAF801
:102460000030238901339BB223816289D31A6288A9
:10247000934218DC04F11003206983420DD0143814
:1024800002F0ACFF3046FDF7CBFE02F0A5FD236A5B
:1024900093B10321204698470EE03046FDF7C0FE79
:1024A000F5E76FF001073046FDF7BAFE27B9236A5A
:1024B00013B1012120469847384602B0BDE8F087A5
:1024C000F8B504460E461546FDF7A6FE2289638937
:1024D0009A4219D0E7682188B2FBF1F301FB13237C
:1024E0009BB257F833303360E26826892188B6FB07
:1024F000F1F301FB13639BB202EBC3035B682B6038
:10250000FDF78EFE0020F8BDFDF78AFE6FF0030098
:10251000F8BD000008B5024802F00EFA002008BD20
:10252000E4D9000838B50546046800E02468AC42E8
:102530000BD0A4F11401054802F0FEF923689D4276
:10254000F4D0034802F0F8F9F0E738BD9CE0000849
:10255000A0E0000808B502F01BFA002008BDF8B59D
:1025600000230B61CB685BB304460E460B7A4BB37A
:102570000F6868B10025FDF74FFE35B914F8043C2B
:1025800023F08003327A934205D17368002507E077
:102590003C460125EFE7FDF743FE00240EE013461D
:1025A0002468A74206D001351A1D1C60F3689D42BD
:1025B000F5D100E00024FDF733FE35612046F8BD7B
:1025C0000024FBE70024F9E7F8B504460D4617465A
:1025D0001E46084602F08EFB0430206025726760BC
:1025E000E66000232361F8BD2DE9F043B1B0082374
:1025F00023AA01212BA8FFF7E7FF434A08214348FC
:1026000002F09AF9082603E0414802F095F92646BF
:10261000741E002EF8D13F4802F08EF9002767E0C3
:102620008022494603A806F051FC4046FDF7F8FD1C
:1026300094F829300093A4F10C030822114636487F
:1026400002F07AF994F8283003F00703012B09D03F
:10265000022B0BD073B1042B10D0032B12D0E069E6
:10266000034614E02D4802F067F9F8E72C4802F021
:1026700063F9F4E72B4802F05FF9F0E72A4802F02B
:102680005BF9ECE7294802F057F9E8E701331A78DB
:10269000232AFBD0216A2269A0EB020EC31A0B4445
:1026A000642000FB03F3626A0192E26B0092B3FBC9
:1026B000F1F30A4671441E4802F03EF901352F9BA2
:1026C0009D4214DA30AB03EB850353F8344CA4F18C
:1026D0000C09FDF7A1FD804614F8043C23F08003AB
:1026E0009DF8B42093429BD0FDF79AFDE6E737B101
:1026F0002BA93846FFF733FF07463546DFE70020B2
:1027000031B0BDE8F08300BF34DC00083CDC0008D9
:1027100040D9000880DC0008C0DC0008CCDC0008E0
:10272000D8DC0008E4DC0008F0DC0008FCDC000871
:1027300008DD00082DE9F04190B0082303AA02212A
:102740000BA8FFF741FF344A0821344802F0F4F89F
:10275000082603E0324802F0EFF82646741E002EE9
:10276000F8D1304802F0E8F84FF0000848E0FDF7F3
:1027700057FD07F10805BB689D422CD0A7F10C035B
:10278000388A2A46002100E0013112689542FBD1C7
:102790000191009008221146234802F0CDF8284606
:1027A000FFF7C0FE214802F0C7F801340F9B9C429E
:1027B00023DA10AB03EB840353F8347CFDF72CFDD4
:1027C00017F8043C23F080039DF834209342CED0C8
:1027D000FDF726FDE9E7A7F10C03388A2A46002118
:1027E00000E0013112689542FBD10191009008226E
:1027F00011460F4802F0A0F8D7E7B8F1000F06D055
:102800000BA94046FFF7ABFE80463446CEE70020DA
:1028100010B0BDE8F08100BFD4DB0008E0DB0008A9
:1028200040D90008FCDB000814DC000880E5000843
:1028300024DC00082DE9F04190B0082303AA04210C
:102840000BA8FFF7C1FE304A0821304802F074F8A7
:10285000082503E02E4802F06FF825466C1E002D77
:10286000F8D12C4802F068F84FF0000840E0FDF77E
:10287000D7FC06F10807B3689F422CD0A6F10C03E1
:1028800030693A46002100E0013112689742FBD1DD
:1028900001910090082211461F4802F04DF8384679
:1028A000FFF740FE1D4802F047F801340F9B9C42A1
:1028B0001BDA10AB03EB840353F8346CFDF7ACFC6C
:1028C00016F8043C23F080039DF834209342CED0C8
:1028D000FDF7A6FCE9E733690093A6F10C03082293
:1028E00011460F4802F028F8DFE7B8F1000F06D0D4
:1028F0000BA94046FFF733FE80462C46D6E7002062
:1029000010B0BDE8F08100BF90DA000898DA000846
:1029100040D90008BCDA0008DCDA000880E50008CD
:10292000F4DA0008F0B593B0082305AA03210DA836
:10293000FFF74AFE274A0821274801F0FDFF082635
:1029400003E0264801F0F8FF2646741E002EF8D159
:10295000234801F0F1FF002732E0FDF761FCA4F10C
:102960000C03D4F814E094F813C004F108010A46EB
:10297000002000E0013012689142FBD10390CDF8B5
:1029800008C0CDF804E0082100910A46154801F07E
:10299000D3FF0135119B9D4211DA12AB03EB850386
:1029A00053F8344CFDF738FC14F8043C23F0800352
:1029B0009DF83C209342D0D0FDF732FCE9E737B1D7
:1029C0000DA93846FFF7CBFD07463546E2E7002064
:1029D00013B0F0BD70DB000878DB000840D90008B8
:1029E0009CDB0008BCDB00082DE9F04190B0082317
:1029F00003AA06210BA8FFF7E7FD344A0821344853
:102A000001F09AFF082603E0324801F095FF2646C0
:102A1000741E002EF8D1304801F08EFF4FF00008F0
:102A200048E0FDF7FDFB07F10805BB689D422CD08F
:102A3000A7F10C03388B2A46002100E0013112680F
:102A40009542FBD10191009008221146234801F0E4
:102A500073FF2846FFF766FD214801F06DFF013442
:102A60000F9B9C4223DA10AB03EB840353F8347CB6
:102A7000FDF7D2FB17F8043C23F080039DF83420C7
:102A80009342CED0FDF7CCFBE9E7A7F10C03388BDE
:102A90002A46002100E0013112689542FBD10191E4
:102AA0000090082211460F4801F046FFD7E7B8F121
:102AB000000F06D00BA94046FFF751FD8046344673
:102AC000CEE7002010B0BDE8F08100BF08DB0008B1
:102AD00014DB000840D9000830DB000848DB0008A0
:102AE00080E500085CDB0008F0B591B0082303AA7C
:102AF00009210BA8FFF768FD234A0821234801F0AC
:102B00001BFF082603E0224801F016FF2646741E2C
:102B1000002EF8D11F4801F00FFF00272AE0FDF733
:102B20007FFBA5F10C032A7A152A20D81A4951F8FF
:102B30002210AA7B0192009108221146174801F049
:102B4000FBFE01340F9B9C4213DA10AB03EB8403B2
:102B500053F8345CFDF760FB15F8043C23F0800368
:102B60009DF834209342DAD0FDF75AFBE9E70C498F
:102B7000DFE737B10BA93846FFF7F1FC07463446CB
:102B8000E0E7002011B0F0BD28DA000830DA0008D4
:102B900040D9000858DA00088CD900087CDA00080F
:102BA00020DA0008F0B591B0082303AA0A210BA887
:102BB000FFF70AFD294A0821294801F0BDFE082631
:102BC00003E0284801F0B8FE2646741E002EF8D116
:102BD000254801F0B1FE00272FE0FDF721FBEB694E
:102BE0000193AB690093A5F10C03082211461F481D
:102BF00001F0A2FE15F8033C13F0010F18D01C4899
:102C000001F09AFE01340F9B9C4215DA10AB03EBE6
:102C1000840353F8345CFDF7FFFA15F8043C23F005
:102C200080039DF834209342D7D0FDF7F9FAE9E705
:102C3000104801F081FEE5E737B10BA93846FFF7F0
:102C40008EFC07463446DEE700F01AFF01460A48CC
:102C500001F072FE002011B0F0BD00BF30DD0008B1
:102C600038DD000840D9000860DD000884DD000878
:102C70009CDD0008A8DD0008B8DD000838B50D4867
:102C800001F05AFE0C4B1C6800E00C340B4B1B6827
:102C90009C420DD2256802220949284606F029F9EE
:102CA0000028F2D062682946064801F045FEECE7AC
:102CB000002038BDF8D90008E8250020EC250020C8
:102CC0000CDA000810DA0008034602786AB110B482
:102CD0000C7834B1A24204D1013301311A78002AB0
:102CE000F6D1181A5DF8044B7047001A70470000BF
:102CF00070B51546002423464DE08B4208D20022D1
:102D000000F8012B01330278202AF6D0092AF4D0EA
:102D1000092C10D88B421ED2222A1ED045F824003E
:102D200001340278202A34D0092A32D08B4230D2A2
:102D300001300133F5E7194801F0FEFD002605E0FA
:102D400055F82610164801F0F7FD0136B442F7D8C1
:102D5000144801F0F1FD204670BD0130013345F803
:102D60002400013401E0013001330278222A09D025
:102D70008B4207D25C2AF6D14278222AF3D1013065
:102D80000133F0E78B42E6D2002200F8012B013339
:102D900001E08B42DFD28B42B5D3DCE720E20008B2
:102DA00040E2000880E5000838B50F4801F0C4FD96
:102DB0000E4B1C6800E00C340D4B1B689C420DD27E
:102DC000256806220B49284606F093F80028F2D120
:102DD0006268A91D084801F0AFFDECE7074801F063
:102DE000ABFD002038BD00BFF0E10008E825002061
:102DF000EC2500200CE2000814E2000880E5000841
:102E0000F8B507460E460F4B1C6800E00C340E4B1D
:102E10001B689C4214D2256806220C49284606F0FD
:102E200068F80028F2D132463946A81D06F061F84C
:102E30000028EBD1B31DEB5C002BE7D1A068F8BDF7
:102E40000020F8BDE8250020EC2500200CE2000859
:102E500008B5FFF7C9FB002008BD08B501F0ECFD7F
:102E6000002008BDF0B58BB0002300E00133C45C46
:102E7000202C03D0092C01D08B42F7D3C3B11646C6
:102E80000D4604461946FFF7BBFF074698B12822B6
:102E90000021684606F025F86A4629462046FFF7D5
:102EA00027FF58B16946B847306000200BB0F0BD2D
:102EB0004FF0FF30FAE74FF0FF30F7E74FF0FF3009
:102EC000F4E701207047000010B582B0044601E02D
:102ED000013401392378202BFAD0092BF8D011B90D
:102EE000002002B010BD01AA2046FFF7BBFF80B949
:102EF0000198F6E701331A78202A01D0002AF9D187
:102F000000221A702146044801F016FD4FF0FF30F0
:102F1000E7E72346EFE700BFD8E100082DE9F843D3
:102F2000037833B10646214B1D684FF00008474631
:102F300013E000210846FFF737FFBDE8F88321467C
:102F40004046FFF7C1FE8146874200DCB946214674
:102F5000174801F0F1FC4F460C35164B1B689D429B
:102F60001AD22C6806221449204605F0C2FF002818
:102F7000F2D106343046FDF7EBF9024621463046E1
:102F800005F0B7FF0028E7D1002FD8D12046FDF784
:102F9000DFF90746A046D2E7B8F1000F04D03A4661
:102FA0004146304601F0ACFABDE8F883E825002040
:102FB0001CE20008EC2500200CE2000808B5034BD9
:102FC000186801F001F8002008BD00BFE82B0020C0
:102FD00000B583B000238DF8073005E04FF0FF31D6
:102FE0000A4B186800F07AFF084B186801230DF1AE
:102FF00007024FF0FF31D0F80C0200F07EFE0128EE
:10300000ECD19DF8070003B05DF804FBE82B00202D
:1030100070B50446B0F80632002B5DD0858C042DC7
:1030200032D900F5DB765022314600F5B37005F059
:103030003EFF002850D000250FE005EB8503180166
:1030400020302044013505EB85031901203121444E
:1030500050220631063005F039FF032DEDDD05EB7A
:1030600085052B0103F1200525440635502200215A
:10307000284605F036FFB4F806223146284605F00A
:1030800025FF0523A38427E065B16B1E03EB8303B3
:10309000180120302044502204F5DB71063005F081
:1030A00006FFC8B105EB85052801203020445022D9
:1030B0000021063005F015FFA38C03EB83031801F4
:1030C00020302044B4F8062204F5DB71063005F008
:1030D000FDFEA38C0133A384A38C638470BD000028
:1030E000184B1B6893F8213013F0020F0AD010B56B
:1030F000154B196859B14FF48072144805F00BFF55
:10310000124810BD0022114B1A7010487047FFF78B
:10311000D8FE68B10D4B0E4A92E803001860197191
:103120000A4C2046FDF714F90A4B1B882352E7E7A7
:10313000064B094A92E8030018609980090C9971BE
:10314000EEE700BFE82B0020FC260020F825002039
:10315000C4E20008D4E20008CCE2000810B504463E
:10316000064801F0E9FBFFF7BBFF04F5DB720146FF
:10317000034801F0E1FB002010BD00BF34E300086C
:103180003CE3000810B50446094801F0D5FBFFF701
:1031900098FE012807D0FFF7A3FF22460146054805
:1031A00001F0CAFB10BD2046FFF7B8FEF3E700BFF1
:1031B00080E500083CE30008044B1B6893F82120DD
:1031C00060F3410283F82120704700BFE82B002004
:1031D00038B5054600F0F0FC68B30446184B1B6890
:1031E000D3F80C32984225D040F2431100F028FD6C
:1031F00000BB134B1B68D3F80C0240B100F062FD1A
:103200000F4B1B680021D3F80C0200F0A7FD0C4BFC
:103210001D685022002105F5DB7005F062FE0023D9
:10322000A5F80632A5F80832C5F80C420549204633
:1032300000F094FD38BD2946034801F07DFB38BD00
:10324000E82B0020BD2F0008D8E2000838B5BC4BA1
:103250001B6893F8212042F0010283F82120D3F863
:103260000C3223B1FFF73CFF01F066FB0BE001F0ED
:1032700047FB0028F6D0FFF7ABFFF3E7B04B1B6826
:10328000012283F82020FFF7A3FE041EFBDB1B2C8A
:10329000F4D0AB4B1D6895F82030012B40D0022BA9
:1032A00048D0002CEFD0FF2CEDD0092C00F0D180BD
:1032B0007F2C00F0D080082C00F0CD800D2C00F089
:1032C00012810A2C00F00F81B5F806324F2B02D97B
:1032D0000023A5F80632B5F80822B5F806329A425E
:1032E000C0F03A812B4483F8B64195F8213013F0B1
:1032F000010F40F06081924B1A68B2F80632013338
:103300009BB2A2F80632B2F808120131A2F80812F4
:103310004F2BB8D90023A2F80632A2F80832B2E740
:103320005B2C03D0002385F82030BAE7022385F810
:103330002030A8E7002385F82030412C19D0422CFA
:1033400037D0442C5BD0432CABD1B5F80832B5F85C
:103350000622934297D22B4493F8B611794801F094
:10336000EBFA774B1A68B2F808320133A2F8083248
:1033700089E76B8C13B900236B8484E7013B9BB214
:103380006B8405F5DB7403EB83031A012032A91863
:1033900050220631204605F099FD2046FCF7D8FF63
:1033A00080B2A5F80602A5F808022846FFF7D6FE67
:1033B00069E76B8CAA8C511E8B421ADA01336B843D
:1033C00005F5DB746A8C02EB820213012033E918E5
:1033D00050220631204605F079FD2046FCF7B8FF63
:1033E00080B2A5F80602A5F808022846FFF7B6FE47
:1033F00049E7002A3FF447AF013A6A84E0E7B5F8AD
:103400000832002B3FF43FAF4F4801F095FA4C4B88
:103410001A68B2F80832013BA2F8083233E74A488A
:1034200001F08AFA0134464B1868B0F808329C4221
:10343000F5DB00F5DB70FFF7A5FE414B1C6804F5DA
:10344000DB70FCF785FF80B2A4F80602A4F808023E
:1034500019E70024E7E7B5F80832002B3FF413AF73
:10346000B5F80622013A92B2A5F80622013B9BB2BA
:10347000A5F808329A422AD903F5D870284403F2F5
:10348000B1112944D21A0631063001F019F82C4C3A
:103490002368B3F806221A44002182F8B611B3F863
:1034A000082202F5D8721344991D284801F044FA05
:1034B0002368B3F8084203E0234801F03DFA0134E1
:1034C0001F4B1B68B3F806329C42F5DDDBE6204853
:1034D00001F032FA1A4B1B68B3F80622134400229B
:1034E00083F8B621CFE62846FFF792FDFFF7E9FC07
:1034F000012811D0FFF7F4FD01F01EFA104B1C68F3
:103500005022002104F5DB7005F0EBFC0023A4F849
:103510000632A4F80832B6E6094B1B6893F821304E
:1035200013F0010F08D1064B1868B0F8061200F529
:10353000DB70FFF7C9FCDDE7064801F0FDF9F2E7B3
:10354000E82B002024E3000820E3000828E300081B
:1035500030E3000880E5000802F2B110284402F5CB
:10356000D87129449A1A0631063000F0A9FF144B8D
:103570001B68B3F80822991881F8B64193F8211016
:1035800011F0010F04D10E4B1B68B3F808420BE099
:1035900002F5D8721344991D0A4801F0CDF9F2E7FB
:1035A000094801F0C9F90134054B1B68B3F806322C
:1035B0009C42F5DB9FE62146044801F0BDF99AE6FE
:1035C000E82B00209CE0000820E3000824E300082A
:1035D000024B1860024B1960704700BFE8250020BD
:1035E000EC250020024B1860024B1960704700BFA9
:1035F000F0250020F425002010B582B01A491B48A0
:10360000FFF7E6FF1A491B48FFF7ECFF4FF4047180
:10361000012001F007FB184B1860E0B10A23019369
:10362000142300934FF47A7300221449144801F0D4
:1036300023FE044600231A4612490F48006800F092
:1036400011FC0120FFF7B8FD5CB1204601F0F4FE4B
:10365000002002B010BD0C4801F06EF94FF0FF30B1
:10366000F7E70020F5E700BF000001088CFE000826
:103670000000010800000108E82B00204D3200087E
:1036800010E3000818E30008F8E2000810B521482C
:1036900001F052F9204C2178204801F04DF92378AF
:1036A00013F0010F1CD11C4B1B7813F0020F1BD120
:1036B000194B1B7813F0040F1AD1174B1B7813F01A
:1036C000080F19D1144B1B7813F0100F18D1124B9F
:1036D0001B7813F0800F17D1114801F02DF910BDA0
:1036E000104801F029F9DEE70F4801F025F9DFE77E
:1036F0000E4801F021F9E0E70D4801F01DF9E1E77E
:103700000C4801F019F9E2E70B4B19680B4801F07E
:1037100013F910BD44E3000829ED00E050E3000870
:1037200080E5000868E3000874E3000880E300080F
:1037300090E300089CE3000838ED00E0A4E30008F3
:1037400010B51D4801F0F8F81C4C21781C4801F018
:10375000F3F8237813F0010F17D1184B1B7813F0EF
:10376000020F16D1154B1B7813F0080F15D1134B10
:103770001B7813F0100F14D1104B1B7813F0800F2F
:1037800013D1104801F0D8F810BD0F4801F0D4F85B
:10379000E3E70E4801F0D0F8E4E70D4801F0CCF87B
:1037A000E5E70C4801F0C8F8E6E70B4B19680B4851
:1037B00001F0C2F810BD00BFDCE3000828ED00E016
:1037C000F0E3000880E5000808E4000814E40008BD
:1037D00020E400082CE4000834ED00E038E40008A0
:1037E00010B5214801F0A8F8204C218889B2204862
:1037F00001F0A2F8238813F0010F1CD11B4B1B888A
:1038000013F0020F1BD1194B1B8813F0040F1AD1B0
:10381000164B1B8813F0080F19D1144B1B8813F497
:10382000807F18D1114B1B8813F4007F17D11148EA
:1038300001F082F810BD104801F07EF8DEE70F4875
:1038400001F07AF8DFE70E4801F076F8E0E70D487E
:1038500001F072F8E1E70C4801F06EF8E2E70B487E
:1038600001F06AF8E3E700BF94E500082AED00E004
:10387000A4E5000880E50008BCE50008C8E50008EC
:10388000D4E50008DCE50008E4E50008F0E5000800
:1038900008B5154B1B6813F0020F13D1124B1B68B0
:1038A00013F0804F09D0114B1B787BB9104B1B785C
:1038B0007BB9104B1B889BB273B90B4B1B68002B59
:1038C0000DDB08BD0C4801F037F8E7E7FFF7DEFE37
:1038D000ECE7FFF735FFECE7FFF782FFEDE707487E
:1038E00001F02AF8EDE700BF2CED00E029ED00E043
:1038F00028ED00E02AED00E0B4E30008CCE3000886
:1039000070B40646043222F00705A5F144000022F7
:1039100003E00E4C40F822400132102AF9D945F854
:10392000201C002245F81C2C45F8182C45F8142CB6
:1039300045F8102C45F80C3C45F8086C4FF08073A6
:1039400045F8043C45F8442C70BC7047EFBEADDE32
:1039500010B50446314B1B681BB12830984700282E
:103960005AD0616C2E4800F0E7FFA16A2D4800F0A4
:10397000E3FFE16A2C4800F0DFFF216B2B4800F0E9
:10398000DBFF616B2A4800F0D7FFA168294800F0EF
:10399000D3FFE168284800F0CFFF2169274800F0F5
:1039A000CBFF6169264800F0C7FFA169254800F0F8
:1039B000C3FFE169244800F0BFFF216A234800F0FB
:1039C000BBFF616A224800F0B7FFA16B214800F0FD
:1039D000B3FFE16B204800F0AFFF216C1F4800F0FF
:1039E000ABFF236813F0040F0ED001F011FC014669
:1039F0001B4800F0A1FFFEF7F7FD236813F0100F3E
:103A000006D0FFF745FFFEE7164800F095FFF4E704
:103A1000154800F091FFF4E710BD00BF002700201B
:103A200048E4000858E4000868E4000878E4000866
:103A300088E4000898E40008A8E40008B8E4000856
:103A4000C8E40008D8E40008E8E40008F8E4000846
:103A500008E5000818E5000828E5000838E5000832
:103A600048E5000868E5000884E5000890FAA0F33E
:103A7000B3FA83F308B94FF0FF33581C70470000C6
:103A8000014B1868704700BF0427002008B50C4A96
:103A900013680133136001F0BBFB836C013B83644B
:103AA00013B101F019FE08BD436C836490F8343003
:103AB00043F0080380F8343001F02AFCF1E700BF3E
:103AC00004270020002818DB10B40D4C84FB0032C2
:103AD000C317C3EBA2134FF47A7202FB03F1431A2C
:103AE00002FB03F202F2E73384FB0324DB17C3EB90
:103AF000A413C8185DF8044B70474FF0FF307047AF
:103B0000D34D62100020704700207047002070479E
:103B10000020704710B5044C02E054F8043B98476D
:103B2000024B9C42F9D310BD0400010810000108AB
:103B300010B5044C02E054F8043B9847024B9C42F9
:103B4000F9D310BD100001082000010808B5FFF7E7
:103B5000EFFF01F047FF08BD00B583B014230193C8
:103B60000A2300934FF4487300220449044801F0EB
:103B700083FB01F061FC03B05DF804FB4D3B0008E2
:103B8000FCE5000808B5FCF747FBFCF7C5FD00F0B5
:103B9000FFFE01F0FFFD01F093F9FFF7DDFF01F0FB
:103BA00007FE00F035F901F001FA002008BD08B564
:103BB000FFF7E8FF002008BDF8B5074601F028FB35
:103BC00008B101F08BFA092001F094F80646446828
:103BD000331D9C4210D0A4F10C050822394628461A
:103BE00000F0A3FC08B12468F2E701F011FB50B12A
:103BF00001F080FA2846F8BD01F00AFB28B101F077
:103C000079FA0020F8BD2846F8BD0020F8BD88B13B
:103C100070B5044616460D460846FFF7CDFF60B95D
:103C20002A460921204601F077F8E6820020A07696
:103C3000208370BD4FF0FF3070474FF0FF3070BDF4
:103C400070B504460E46C38A13F0100F12D1436AB2
:103C50001B686BB19847054620B9E38A43F010030F
:103C6000E38208E002462146154800F065FE1CE0AC
:103C70000025F2E70025E38A13F0080F03D0238B19
:103C800013F0080F19D1636A5B6883B1314620468F
:103C90009847054615B115F1060F06D1238B43F061
:103CA00008032383A37E0133A376284670BD26F044
:103CB000F0063605360D2683ECE76FF00605F4E7CF
:103CC00004E60008837E9BB1013BDBB2837693B9A7
:103CD00010B50446436A9B682BB1984728B110F190
:103CE000060F02D010BD0020F8E70023238310BD8B
:103CF0004FF0FF3070470020704710B5847E24B12C
:103D0000446AE4683CB1A04710BD4FF0FF3000F0BA
:103D10006DFB002010BD6FF0050000F067FB002078
:103D200010BD10B5847E24B1446A24693CB1A0471B
:103D300010BD4FF0FF3000F059FB002010BD6FF0B8
:103D4000050000F053FB002010BD08B5436A5B6915
:103D50000BB1984708BD6FF0050008BDC161002098
:103D600070470000204B1A689A423CD070B513E0AF
:103D7000284601F067F8012828D001F0BBF9304649
:103D8000FCF74EFA606900F05BFF284601F03EF850
:103D9000154B1A689A4225D0FCF73EFA0646124B9C
:103DA0001A689A421BD01C68A4F114052368626843
:103DB0005A60636822681A606460246001F08EF9BA
:103DC000636E002BD4D028469847D1E7284600F0F0
:103DD000D3FF01F08FF93046FCF722FA70BDFCF7F3
:103DE0001FFA70BD70BD7047102D002010B50BE09C
:103DF0000134032C06D8054B53F82430002BF7D0A0
:103E00009847F5E7FFF7AEFF0024F2E78827002088
:103E100030B587B000240CB107B030BD22460D4943
:103E200004A800F05FFDE2010B4D15440B4B134459
:103E3000202203921F2202928022019200930023EB
:103E4000074A04A9284601F0C8F9284601F0F4FA07
:103E50000134E0E73CE6000808270020982700200E
:103E6000ED3D000870B5044616461D460A4602217F
:103E700000F052FF04F11403A3616361A68365722D
:103E8000002070BD38B50D4614460146022000F0F2
:103E90008DFF034628B100F11402826142618583DF
:103EA0004472184638BD70B5064600F114040CE0A3
:103EB000FCF7B2F9054620684FF0FF33C3611438B0
:103EC00001F08CFA2846FCF7ABF923689C42EFD14D
:103ED000304600F09BFF002070BD00002DE9F0414E
:103EE00082B005460191364B1B6803B19847FCF739
:103EF00093F90746AB8B83BB019B9BB301F088F919
:103F000004460023036305F1140695F8098001F0C7
:103F100005FAB8F1000F2AD0B8F1010F30D0019B9B
:103F2000002B09DD04F14C0601AA0021304601F006
:103F3000BBFB304601F026FB3846FCF771F901F077
:103F40004BF8206B30B91F4B1B68002B36D028462E
:103F50009847002002B0BDE8F081013BAB83FCF73D
:103F60005FF9F0E7FCF75CF96FF00100F2E704F1AC
:103F70001403726813607268A26173606661CEE7B1
:103F80006B699E420FD094F8351093F8212091422E
:103F900001D31B68F5E704F1140259680A605968F7
:103FA000A1615A6063619E42B9D104F11403726841
:103FB00013607268A26173606661B0E70020C9E7B0
:103FC000002C0020FC2B002038B504460E4B1B684B
:103FD00003B19847FCF720F9054604F11403606922
:103FE000834209D0143801F0F9F901242846FCF77E
:103FF00017F934B9002038BDA38B0133A383002403
:10400000F4E700F0E9FFF5E7F82B002038B50446A7
:1040100015460A46032100F07FFE04F11403A36154
:1040200063610123A38300202062FF23A377E0774D
:10403000657238BD2DE9F04182B00646019101F06C
:10404000E7F80446FCF7E8F88046464B1B680BB1DE
:104050003046984700232363336A9C4247D1F37F5D
:104060000133F37708E0013BB383346294F83530D1
:10407000B377F37F0133F3774046FCF7D1F83A4B3F
:104080001B68002B6CD030469847002002B0BDE87A
:10409000F0816FF0010525634046FCF7C1F8284622
:1040A000F4E704F13502022101F0DAF92CE004F121
:1040B00014036A6813606A68A2616B606561019BA2
:1040C000002B09DD04F14C0501AA0021284601F06E
:1040D000EBFA284601F056FA4046FCF7A1F800F04A
:1040E0007BFF206B002837D010F1090FCED1B38BA6
:1040F000002BB8D1019B002BCBD094F83520306A2F
:1041000090F835309A42CCD306F11405777A2046E0
:1041100001F004F9002FCAD0012FD0D173699D425C
:104120000FD094F8351093F82120914201D31B68E9
:10413000F5E704F1140259680A605968A1615A60F0
:1041400063619D42BBD104F114036A6813606A681D
:10415000A2616B606561B2E7FCF75EF880468BE7B1
:10416000002093E7002C0020FC2B002070B50446B3
:1041700001F04EF80646FCF74FF80546224B1B6847
:104180000BB120469847206A864220D1E37F013B4D
:10419000DBB2E37763BBA27F90F835309A4204D05C
:1041A00004F11E02022101F05BF904F114036269BB
:1041B000934214D0A2F11400206292F82130A37728
:1041C000E37F0133E37701F009F9012411E04FF0B7
:1041D000FF3434632846FCF723F8204670BDA38BD8
:1041E0000133A38300232362FF22A2771C4600E051
:1041F00000242846FCF714F80CB9002070BD00F02C
:10420000EBFE002070BD00BFF82B002010B5FCF7BE
:1042100003F80446064A13780133DBB21370054BEA
:104220001B6803B198472046FBF7FAFF10BD00BF9B
:10423000202800201828002010B5FBF7EDFF0446C9
:10424000064A1378013BDBB21370054B1B6803B1C0
:1042500098472046FBF7E4FF10BD00BF2028002050
:104260001C28002010B5FBF7D7FF034B1C78E4B2E5
:10427000FBF7D6FF204610BD202800202DE9F04F87
:1042800085B00F9E109F17F0400F19D0DFF85491A2
:1042900017F0100F01D027F0010717F0010F12D00F
:1042A0004FF0300E17F0020F14D0002A0EDB17F07B
:1042B000040F26D117F0080F26D14FF0000C0BE0A9
:1042C000DFF82491E4E74FF0200EEBE752424FF085
:1042D0002D0C01E04FF0000CBABB30238DF80030FC
:1042E0000124B44233DC32460E9DAD1A17F0110F93
:1042F00039D1BCF1000F02D0002D00DD013D2B466D
:1043000029E04FF02B0CE7E74FF0200CE4E7344DA9
:10431000A5FB02A5ED08AA4605EB85054FEA450B6E
:10432000A2EB0B0B524619F80B500DF1100A544436
:1043300004F8105C4446002AD3D004F101080A2B8B
:10434000E5D002F00F0B1209EDE70024F3E7224657
:10435000CAE701302B465D1E002B04DD8842F8D2EF
:1043600020230370F5E7BCF1000F05D0884201D28D
:1043700080F800C0013D013017F0100F03D02B462C
:104380000BE001301D466B1E002D06DD8842F8D281
:1043900080F800E0F5E701302A46551EA24206DD0E
:1043A0008842F8D230220270F5E701301446621ECE
:1043B000002C0ADD4EB18842F7D204AC144414F844
:1043C000104C0470F1E7013013465A1E002B04DD37
:1043D0008842F8D220230370F5E705B0BDE8F08FDE
:1043E000CDCCCCCC44E60008E8E6000810B5044685
:1043F000FFF738FF10B1054B1C6010BD00F008FF3F
:1044000008B1046310BD014B1C6010BD24280020BE
:1044100010B4032A05D9CCB210F0030F03D0034621
:1044200019E0034617E044EA042444EA044403463E
:1044300005E01C605C609C60DC60103A10330F2A61
:10444000F7D802E01C60043A0433032AFAD802E0E9
:10445000197001332246541E002AF9D15DF8044B2D
:10446000704710B40F2A06D941EA000313F0030F76
:1044700011D003461EE003461CE00C681C604C682B
:104480005C608C689C60CC68DC60103A1031103342
:104490000F2AF2D806E00346FAE70C681C60043ADB
:1044A00004310433032AF8D804E00A781A7022464B
:1044B00001310133541E002AF7D15DF8044B7047D7
:1044C00010B4884218D98B18984217D2811804E08A
:1044D00013F8012D01F8012D2246541E002AF7D1B0
:1044E00007E00A781A70013101332246541E002A6F
:1044F000F7D15DF8044B70470346F7E70346F5E74D
:1045000092B130B413460446621C4D1C09782170E8
:1045100039B114462946013BF6D104E0002111705F
:104520000132013BFAD130BC704700237AB130B47C
:1045300004784D1C0B78E31A5BB22BB901301CB127
:10454000013A2946002AF3D1184630BC7047184674
:104550007047034600E001331A78002AFBD1181A8D
:10456000704700002DE9F04F87B083460491144650
:10457000059310EB010903D3C34304934FF0FF39B4
:104580005F4601E0013701342378002B00F0918170
:10459000252B03D04F45F5D23B70F3E7002502E011
:1045A00045F010051446621C63782D2BF8D02B2B98
:1045B00008D0202B09D0232B0AD0302B0BD145F06B
:1045C0000105EFE745F00405ECE745F00805E9E7EC
:1045D00045F02005E6E7A3F13001092979D92A2B16
:1045E00079D014464FF0FF360BE006EB86067300D9
:1045F00001325E18303E1178A1F13003092BF4D955
:10460000144623782E2B71D04FF0FF382378682B77
:1046100000F098806C2B00F0958000222378253BD9
:10462000532B00F21381DFE813F001011101110196
:1046300011011101110111011101110111011101EA
:1046400011011101110111011101110111011101DA
:1046500011011101110111011101110111011101CA
:1046600011011101110111011101110111011101BA
:1046700011011101110111011101110111011101AA
:10468000110111011101110111011101110111019A
:104690000901110111011101110111011101110192
:1046A00011011101110190000D0111011101110100
:1046B00011010D0111011101110111011101070178
:1046C000EB0011011101AF001101200111011101D5
:1046D000220100268FE70234059B1A1D05921E68F1
:1046E000002E8EDA764245F010058AE7621C637868
:1046F000A3F1300109291BD92A2B1CD014464FF0F5
:10470000FF380EE008EB88084FEA4803013203EB5C
:104710000108A8F130081178A1F13003092BF1D973
:104720001446B8F1000FBFF671AF4FF000086DE707
:104730004FF00008EFE70234059B1A1D0592D3F8ED
:104740000080EEE701341A4668E715F0100F09D033
:10475000059B1A1D05921B784F4500D23B7001370F
:1047600009E00137013E002EF2DD4F45F9D220234A
:104770003B70F6E70137013E002E7FF704AF4F454F
:10478000F8D220233B70F5E7059B1A1D0592D3F85C
:1047900000A0BAF1000F0DD05046FFF7DAFEB8F1D5
:1047A000000F02DD804500DA404615F0100F06D0FC
:1047B000002312E0DFF818A1EEE701371E46731E52
:1047C000B04204DA4F45F8D220223A70F5E71E468F
:1047D000EEE701370AF1010A0133834207DA4F4558
:1047E000F7D29AF800203A70F3E701371E46731E9D
:1047F000B042BFF6C8AE4F45F7D220223A70F4E778
:10480000B6F1FF3F0ED0059B1A1D05921A6802955E
:10481000CDF804800096102349463846FFF72EFD58
:104820000746B0E645F001050826ECE74F4501D202
:1048300025233B700137A6E6082319E045F0400523
:10484000102315E045F002050A2311E04F4501D27F
:1048500025233B707A1C237823B1914500D97B70C6
:10486000023790E6013C17468DE60A2300E010234C
:104870006C2A0FD0682A12D0059A111D0591126872
:104880000295CDF80480009649463846FFF7F6FCBD
:10489000074678E6059A111D05911268F0E7059A1A
:1048A000111D059111688AB215F0020FE8D00AB205
:1048B000E6E7049B23B14F4507D3002309F8013CE9
:1048C000A7EB0B0007B0BDE8F08F00233B70F7E7C4
:1048D000E0E6000808B513460A464FF0FF31FFF73F
:1048E00041FE08BD0EB400B582B003AA52F8041B05
:1048F0000192FFF7EFFF02B05DF804EB03B07047E1
:10490000014B1868704700BF2828002038B5094BB4
:104910001D68FFF751F958B10446064B186808B1F5
:10492000FFF7D0F943212046FFF78AF9014B1C60BD
:10493000284638BD282800200FB430B583B006AB18
:1049400053F8042B0193FF210F48FFF70BFEFF28BC
:1049500000D9FF200D4B1C688CB1258B45F040031E
:1049600023830346084A00212046FFF7DAF9074B64
:104970001B681D8303B0BDE8304004B07047024897
:10498000FBF7FAFEF6E700BF2C28002028280020BD
:1049900000B583B00948FFF7CFFF0948FFF7CCFF08
:1049A000084B00930223002204210748FFF7C4FFAD
:1049B0000648FFF7C1FF03B05DF804FB58E60008A6
:1049C00064E60008A8E6000888E60008B4E60008E7
:1049D000164B196842680A4490420FD053886BB94D
:1049E000134B1B689A4209D0124B1B689A4216D08F
:1049F0005368436053680B44421A9A6083680B44BF
:104A000098420BD05A884AB90A4A1268904209D093
:104A100042685A6042680A445B1A93607047054BCB
:104A20001860E5E7034A1360F2E700BF3029002071
:104A30002C2900205429002008B5084B1968084883
:104A4000FFF77AFF074B19680748FFF775FF074B19
:104A500019680748FFF770FF08BD00BF5C290020F8
:104A6000FCE600086829002010E70008582900200B
:104A700024E7000870B521F00303182B06D9C41CE5
:104A800024F00304A3F11802944205D90A46014612
:104A90001148FFF751FF70BD1B1BA3F118010F4A0E
:104AA00011600F4D2C604FF4F5522280A3F10C01E0
:104AB00061600023A360638060180A4E3060625218
:104AC000012242804160816007490848FFF7CAF926
:104AD0002A68074B1A6070BDC4E700085C290020F3
:104AE000302900202C290020BCE7000834290020B0
:104AF00054290020002800F08180F8B505460335D0
:104B000025F003053F4B1B689D4279D80B2D00D83B
:104B10000C254FF0FF313C48FFF7E0F93B4B1E6896
:104B20003B4B1B689B1B1FE001236380A31BC31A25
:104B3000384A11680B441360374A1268934244D9CB
:104B4000354A136041E05A68304B1B681344304AC1
:104B500013602F4B1B685A88002A3DD02F4A1268D9
:104B60009342F0D138E06368264A1268511B8B42A9
:104B70003FD2F41861880029F5D16068C11A0C3958
:104B80008D42F0D805F11807B942CDD3E9180C31A0
:104B900070184FF4F55777520027478067684760D1
:104BA000836061600123638043680C32934201D0CB
:104BB00033449960174A13682B440C331360164A28
:104BC0001268934201D9144A13604FF4F5532380BD
:104BD0000F4B1B689C42BCD00B48FFF7F5F9104BFC
:104BE0001B681BB1294604F10C00984704F10C0026
:104BF000F8BD0548FFF7E8F90020F8BD0020704730
:104C00000020F8BD5C290020342900203029002034
:104C10005429002068290020582900202C29002030
:104C20006429002038B501FB00F52846FFF762FF34
:104C3000044618B12A460021FFF7EAFB204638BD9A
:104C4000002846D038B50446224B1B6803B198476C
:104C5000214B1B689C4203D3204B1B689C4200D312
:104C600038BDA4F10C054FF0FF311D48FFF736F9B0
:104C700034F80A3C23B134F80C3CB3F5F55F0AD0A4
:104C80001848FFF759FE34F80C3C34F80A2C294632
:104C90001548FFF751FE002324F80A3C4FF4F55362
:104CA00024F80C3C114B1B689D4201D20F4B1D6038
:104CB000094B1B68EB1A54F8082C9B1A0C490A681C
:104CC00013440B602846FFF783FE0548FFF77CF985
:104CD000C6E7704760290020302900202C290020D9
:104CE0003429002070E700088CE7000854290020D0
:104CF000682900200023062B09DC1A0105498A5C7B
:104D0000824201D00133F6E701EB03107047002027
:104D1000704700BF080000202DE9F04106460F460D
:104D200090460846FFF7E6FF054600F0D7F96B68A6
:104D300000E01B682C1DA342FBD100F0DBF967F0FB
:104D40007F073772082241463046FFF7D9FB094BEF
:104D50001B680BB130469847FBF75EFA06F10C036F
:104D60006A6853606A68F2606B603461FBF758FAF6
:104D7000BDE8F0816C29002010B504460A4B1B6881
:104D800003B1984700232372FBF746FA04F10C03A2
:104D9000E268216951602269E16811602361E36082
:104DA000FBF73EFA10BD00BF70290020F8B507469A
:104DB0000E46FFF79FFF0546C068FFF79BFE00B356
:104DC0000446EA680021FFF723FB27720023637281
:104DD000082231462046FFF793FB0B4B1B680BB1B3
:104DE00020469847FBF718FA2A1D04F10C0369685E
:104DF0004B606968E1606B602261FBF711FA204645
:104E0000F8BD0024FBE700BF6C29002010B5044664
:104E10000B4B1B6803B1984700232372FBF7FCF987
:104E200004F10C03E268216951602269E1681160B4
:104E30002361E360FBF7F4F92046FFF701FF10BDA3
:104E40007029002090F90830002B01DB002070470A
:104E50000120704710B50446054B1868FEF706FEA2
:104E6000431E044A52F833002360143810BD00BFBB
:104E70000C2D0020042C002008B5836A1A78232A00
:104E80000AD001460C48FFF757FDFDF7ADFBFBF7D5
:104E9000C3F90028FDD108BDC2699A42F1D9C16A9F
:104EA00019448A42EDD820339A4200D908BD014600
:104EB0000248FFF741FDF9E700E800081CE8000898
:104EC0000023094A138006E0084901EBC30252603F
:104ED00041F8332001331F2BF6DD0022044B1A600A
:104EE000044B5B601B60704778290020042C002075
:104EF0000C2D0020102D002010B50446FBF78CF976
:104F0000144B1B68A3421CD094F9343023F00703E0
:104F100043F0010384F8343094F835200E4B03EB52
:104F2000C20304F1140259680A605968A1615A6009
:104F30006361A16B094A13680B431360FBF770F9B7
:104F400010BD94F9343023F0070343F0030384F8D1
:104F50003430F3E7082D0020042C00200C2D002015
:104F600010B50446FBF758F904F114036269A1690E
:104F70005160A26961691160A361636194F8352091
:104F8000084B03EBC20153F83230994202D0FBF7D1
:104F900047F910BDA16B044A136823EA01031360AB
:104FA000F5E700BF042C00200C2D002010B582B0C6
:104FB00001A8FFF74FFF0446064B1860FFF7D0FF2C
:104FC000032384F8343004F11C00FBF772F902B0BB
:104FD00010BD00BF082D0020F0B583B0FBF71CF911
:104FE0000446384BB3F9003013B9374B1B6823B96B
:104FF0002046FBF715F903B0F0BD01A8FFF72AFF23
:105000000546324B1E6896F8343003F00702032A37
:1050100027D00027B54247D09DF804202C4B1A70AA
:105020002A4B1D602B4B1B6813B12946304698470D
:1050300067BB2846FFF794FF95F9343023F0070348
:1050400043F0030385F834302846FFF715FF224B61
:105050001B78FBB105F11C0106F11C00FBF7E3F81E
:10506000C6E796F83510019A91420CD305D023F08B
:10507000080386F834300127CCE713F0080FF6D187
:1050800035460027C6E735460027C3E73046FFF719
:1050900033FFCEE705F11C0106F11C00FBF7C3F856
:1050A0002046FBF7BDF8A6E73046FFF759FF074B50
:1050B0001A6892F9343023F0070343F0030382F8AF
:1050C000343095E7782900200C2D0020082D002091
:1050D000042D0020742900202028002008B5FBF7AB
:1050E0009BF8034A138801331380FBF799F808BD36
:1050F0007829002008B5FBF78FF80B4A1388013B8D
:105100001BB21380002B02DDFBF78AF808BD0022DA
:10511000054B1A80FBF784F8044B1B68002BF5D075
:10512000FFF75AFF08BD00BF78290020082D002096
:10513000F0B583B00446089809999DF828600B9D46
:1051400004F11407A761676122626362A062E162F1
:105150000A462321FFF75CF9A16AE36A1A1F124B82
:105160000A44616A206AFEF7CBFBE06184F836608E
:1051700084F835600023A3636564A564236384F821
:105180003430A367E367019300932346074A21461F
:1051900004F14C0000F0AEF9054B1B680BB1204642
:1051A0009847002003B0F0BD1D520008B55100081B
:1051B0007C29002010B56FF00102026300F1140297
:1051C000416984694C60816944690C608261426113
:1051D000FFF792FEFFF700FF10BDF0B585B0054662
:1051E0000C4616461F460A460121FFF795FD0D9B0A
:1051F00003939DF8303002930B9B01930A9B00931D
:105200003B46324621462846FFF792FF05B0F0BDE7
:10521000014B1868704700BF082D002038B5FFF714
:10522000F7FF0446FAF7F8FF05462046FFF798FE19
:10523000042384F8343004F14C0000F06FF9204668
:10524000FFF700FE01280DD004F11402094B196884
:105250004A6061611A60A361FFF7BEFE2846FAF753
:10526000DFFF38BDA36F002BEED12046FFF784FD92
:10527000F2E700BF102D00202DE9F04184B0054673
:105280000F4690461E4601460120FFF78FFDD0B124
:1052900004463046FFF72EFC80B10B9A03929DF82E
:1052A000282002920196009043463A46294620461D
:1052B000FFF73EFF204604B0BDE8F0812046FFF72F
:1052C000A5FD0024F6E70024F4E7000010B504462D
:1052D00090F8343013F0070F14D104F14C0000F0B3
:1052E0001DF9FAF799FF042384F8343004F114020D
:1052F000064B19684A6061611A60A361FAF790FF72
:10530000002010BDFFF72CFEE7E700BF102D0020A6
:1053100008B5FFF761FE002008BD000038B590F821
:10532000343003F00703012B01D0032B1CD10446BA
:10533000FAF772FF05462046FFF712FE94F9343063
:1053400023F0070343F0020384F8343004F14C00E7
:1053500000F080F92846FAF763FF064B1B6833B16B
:1053600020469847002038BD4FF0FF3038BD002060
:1053700038BD00BF84290020F0B583B002AD45F8E8
:10538000040DFFF745FF0446FAF746FF074620469F
:10539000FFF7C4FF04F14C062A460021304600F016
:1053A00083F9304600F0EEF83846FAF739FFFFF798
:1053B00013FE236B13F1020F02D0002003B0F0BDE7
:1053C00000232363F9E708B5FFF7D6FF08BD08B54A
:1053D000FEF778FBFFF7D0FF08BD000038B590F866
:1053E000343003F00703022B1ED10446FAF714FFF2
:1053F000054604F114036269A1695160A2696169FB
:105400001160A361636104F14C0000F023F92846A8
:10541000FAF706FF2046FFF76FFD064B1B6833B116
:1054200020469847002038BD4FF0FF3038BD00209F
:1054300038BD00BF8029002008B590F8361080F8EC
:10544000351001228A408263022280F83420FFF75F
:10545000C5FFFFF7DDFE08B1FFF7BEFD002008BD68
:1054600070B50446012929D01546022902D011B38E
:10547000002070BDFAF7D0FE064694F8343003F0F1
:105480000703012B0AD02A7884F8352001239340A2
:10549000A3633046FAF7C4FE002070BD2046FFF734
:1054A0005FFD2A7884F8352001239340A3632046CA
:1054B000FFF722FDEDE7FFF7BFFF70BDFFF706FF27
:1054C00070BD10B49DF8044024F001044472C16121
:1054D00002620022826243621346002B02DD5DF805
:1054E000044B70479A1C00EBC202111D9160516081
:1054F0000133F2E770B582B0044615461E460A46EF
:105500000A21FFF709FC9DF81C300093069B3246E8
:1055100029462046FFF7D5FF02B070BD70B504469E
:10552000FAF77AFE0022002A06DDFAF779FE204615
:10553000FFF722FC002070BD931C04EBC303191D70
:105540005D689E686E609D685E682E6099605960B7
:105550000132E8E7F0B583B00D4616461F46014616
:105560000A20FFF723FC58B104469DF82030009331
:105570003B4632462946FFF7A4FF204603B0F0BD64
:105580000024FAE770B582B00446FAF745FE00221F
:10559000002A2BDD637A23F001036372FAF740FEE1
:1055A000284B1B680BB120469847FEF769FA636ADF
:1055B0001844A062FAF730FE234B0193002141B357
:1055C000224A136801331360019B04F11402196825
:1055D0004A60196861611A60A361637A43F001034C
:1055E0006372FAF71DFE002002B070BD931C04EB3D
:1055F000C303191D5D689E686E609D685E682E60BD
:10560000996059600132C3E702AB03EB810343F8B1
:10561000042C02AB03EB810353F8045CCB000A4A71
:105620001A44526895420AD02A681433D31A9B6AE6
:10563000A56AAB42E8D05B1B054DAB42E4D8013113
:10564000BDE700BFFC2B0020942900208829002002
:10565000FEFFFF7F437A13F0010F20D070B50446A0
:10566000104B1B6803B19847FAF7D6FD0022002AB9
:1056700007DDFAF7D5FD637A23F00103637200209A
:1056800070BD931C04EBC303191D5D689E686E60BA
:105690009D685E682E60996059600132E7E74FF0BF
:1056A000FF307047F82B0020032905D8DFE801F010
:1056B0000602090E436A13600020704713684362B4
:1056C000FAE7437A23F002034372F5E7437A43F0A3
:1056D00002034372F0E70000F8B5FEF7D1F9074680
:1056E000FAF79AFD064620E0A4F114028B1CDB00B9
:1056F0001A440432234453F8100C53F80C7C4760CE
:1057000053F80C0C53F8107C076043F80C2C43F84A
:10571000102C01311AE014F80B3C03F00302032AA9
:1057200023D023F0010304F80B3C164B1C689C4269
:1057300023D0A4F114056069381A134B98421CD881
:10574000124B1B680BB12846984700210029CBDD7E
:10575000A368E0689847FEF793F907460C4B1B686F
:10576000002BD8D028469847D5E723F0010304F84A
:105770000B3C2846FFF706FFD7E73046FAF750FD07
:10578000F8BD00BF94290020FEFFFF7F8C29002078
:1057900090290020002303B17047044901EBC302A4
:1057A000526041F833200133F5E700BF942900200F
:1057B000704708B5FFF792FC08BD08B5FFF79AFCE3
:1057C00008BD08B5FFF7FFFD08BD000010B5044691
:1057D000042002F0D3FE0A4B1C704FF47A7000FBD9
:1057E00004F00122074B1A80074B1A6842F00202AC
:1057F0001A6058601A6842F001021A6010BD00BFBA
:10580000A02900209E29002010E000E070B50E4E77
:1058100075680E4B1C7800FB04F4FFF7CAFFB268F2
:10582000002105E0E81A024411441A46A14207D2B9
:10583000054B9B689A42FBD0F4D9D21A1144F4E785
:10584000FFF7BBFF70BD00BF10E000E0A029002003
:1058500010B504460E4B1B786BB10E4B1B7853B939
:105860000D4B188884420DD20B4B1A88B4FBF2F30F
:1058700002FB1344A4B24FF47A7000FB04F0FFF76C
:10588000C5FF10BDB4FBF0F0FFF79BFFECE700BFD6
:105890009C290020202800209E29002010B90A7889
:1058A000024B1A70014B1878704700BF7800002037
:1058B00008B589B2FBF7A6F9012008BD38B5044642
:1058C0000D46FBF729FEFBF705F8074B19782088F2
:1058D000FBF714F86088FFF77AFDFBF705F8A0885E
:1058E000FFF775FD284638BD7800002010B5144636
:1058F00019B1012905D0002010BD1146FBF778F938
:10590000F9E7FBF76BF92080F5E708B5FAF7D2FF66
:10591000FBF7F9FD002008BD08B5FAF7DBFFFBF740
:10592000E4FD002008BD08B5FAF7DEFFFBF7E4FD53
:10593000002008BD10B51B4A1B4B13601B4B536066
:105940001B4B93601B4B1C4919601C4959601C4937
:1059500099601C49D9601C4919611C4CE263A3631E
:105960001B492046FBF73CFF1A492046FBF738FF4E
:1059700019492046FBF734FF18492046FBF730FF52
:1059800017492046FBF72CFF2046FCF705F80022BC
:1059900011462046FBF7FAFE2046FBF737FF0020B2
:1059A00010BD00BF182D0020270C0008ED5800087E
:1059B000B1580008642D00200B590008195900083F
:1059C000275900089D580008BD580008242D0020C4
:1059D00054E8000868EA00087CEC000890EE000833
:1059E000A4F0000808B5FFF7A5FFFBF791F9002028
:1059F00008BD70477047FEE7FEE7FEE77047704757
:105A00000F49D1F8883043F47003C1F888300D4B4A
:105A10001A6842F001021A60002098601A6822F0A9
:105A2000847222F480321A60074A5A601A6822F49B
:105A300080221A60D8604FF000638B60704700BF0F
:105A400000ED00E00038024010300024AF280ED8EE
:105A500010B4094C430019188A00114622446358B7
:105A6000B3F1FF3F06D010465DF8044B70470022AB
:105A7000104670470022F6E728F3000870B5C8B258
:105A8000FFF7E4FF68B3826800241F2C05DC0123C4
:105A9000A3409A4203D00134F7E74FF0FF340F2CB4
:105AA00001D9062070BDFAF7B7FB04EB440293005E
:105AB0000D4AD35EB3F1FF3F0FD00B4B62001519B7
:105AC000A9005E184FF6FF755D5200257560758060
:105AD000B560FAF7A5FB284670BDFAF7A1FB0020D8
