:020000040800F2
:1000000000000320713600085B290008FF02000889
:100010005D2900085F290008612900080000000030
:10002000000000000000000000000000632900083C
:100030006529000800000000470200084D0700087D
:10004000BD360008BD360008BD360008BD360008C4
:10005000BD360008BD360008BD360008BD360008B4
:10006000BD360008BD360008BD360008BD360008A4
:10007000BD360008BD360008BD360008BD36000894
:10008000BD360008BD360008BD360008BD36000884
:10009000BD360008BD360008BD360008BD36000874
:1000A000BD360008BD360008BD360008BD36000864
:1000B000BD360008BD360008BD360008BD36000854
:1000C000BD360008BD360008BD360008BD36000844
:1000D000BD360008E9280008BD360008BD36000816
:1000E000BD360008BD360008BD360008BD36000824
:1000F000BD360008BD360008BD360008BD36000814
:10010000BD360008BD360008BD360008BD36000803
:10011000BD360008BD360008BD360008BD360008F3
:10012000BD360008BD360008BD360008BD360008E3
:10013000BD360008BD360008BD360008BD360008D3
:10014000BD360008BD360008BD360008BD360008C3
:10015000BD360008BD360008BD360008BD360008B3
:10016000BD360008BD360008BD360008BD360008A3
:10017000BD360008BD360008BD360008000000008E
:10018000BD360008BD360008BD360008BD36000883
:10019000BD360008BD360008BD360008BD36000873
:0C01A000BD360008BD360008BD36000862
:1001AC0010B5054C237833B9044B13B10448AFF3A5
:1001BC0000800123237010BD4C00002000000000C3
:1001CC00D03600080C4B43B10C480D4910B5AFF3B9
:1001DC0000800C48036823B910BD0A48036833B982
:1001EC007047094B002BF7D0BDE810401847064B61
:1001FC00002BF5D0184700BF00000000D0360008D7
:10020C00500000204C00002000000000EFF3108094
:10021C0072B6704780F310887047444A1368012BFC
:10022C0004D04FF001031360414A1060414A116041
:10023C0041484FF0805101607047EFF3108272B665
:10024C003A48016851B34FF0000101603848016829
:10025C0091B1EFF309811EF0100F08BF21ED108B47
:10026C0021E9F00F4FF000041EF0100F08BF01241D
:10027C0041F8044D006801602E490968096808C9F5
:10028C00B1E8F00F002B18BFB1EC108B81F309888B
:10029C004EF0100E002B18BF2EF0100E82F31088AB
:1002AC004EF0040E704723490860EFF3148222F0DD
:1002BC00040282F314881E494FF0000008601B49A9
:1002CC004FF0010008601D484FF47F01D0F800206A
:1002DC0041EA0201016018484FF080510160184852
:1002EC000068006800BF80F3088861B662B670478A
:1002FC0000BFEFF308801EF0040F01D0EFF309806C
:10030C0020E9F00F40F804ED40F804ED1EF0040F66
:10031C0002D080F3098801E080F3088800B500F072
:10032C0069FA5DF804EB4EF0040E7047C813002018
:10033C00C4130020C013002004ED00E020ED00E009
:10034C0008ED00E053B94AB9002908BF00281CBFCA
:10035C004FF0FF314FF0FF3000F07AB9ADF1080CDF
:10036C006DE904CE00F006F8DDF804E0DDE90223C7
:10037C0004B070472DE9F0478C460D460446089EA4
:10038C00002B51D18A4217466DD9B2FA82FEBEF1CA
:10039C00000F0BD0CEF1200C01FA0EF520FA0CFC5C
:1003AC0002FA0EF74CEA050C00FA0EF44FEA174A63
:1003BC00250CBCFBFAF81FFA87F90AFB18CC45EAA6
:1003CC000C4508FB09F3AB420AD9ED1908F1FF32D1
:1003DC0080F02381AB4240F22081A8F102083D4419
:1003EC00ED1AA4B2B5FBFAF00AFB105544EA054429
:1003FC0000FB09F9A14509D9E41900F1FF3380F09C
:10040C000A81A14540F2078102383C44A4EB09045F
:10041C0040EA08400021002E61D024FA0EF400239B
:10042C0034607360BDE8F0878B4207D9002E54D03E
:10043C00002186E821000846BDE8F087B3FA83F175
:10044C00002940F08E80AB4202D3824200F2FA8047
:10045C00841A65EB03050120AC46002E3FD086E8DC
:10046C001010BDE8F08712B90127B7FBF2F7B7FA05
:10047C0087FEBEF1000F34D1EB1B3A0C1FFA87FC40
:10048C000121B3FBF2F8250C02FB183345EA0345B6
:10049C000CFB08F3AB4207D9ED1908F1FF3002D27F
:1004AC00AB4200F2D1808046ED1AA3B2B5FBF2F05C
:1004BC0002FB105543EA05440CFB00FCA44507D98C
:1004CC00E41900F1FF3302D2A44500F2B8801846BB
:1004DC00A4EB0C0440EA08409DE731463046BDE8E9
:1004EC00F087CEF1200405FA0EF307FA0EF720FA86
:1004FC0004F83A0C25FA04F448EA0308B4FBF2F1C8
:10050C004FEA184502FB11441FFA87FC45EA0445E3
:10051C0001FB0CF3AB4200FA0EF409D9ED1901F111
:10052C00FF3080F08A80AB4240F2878002393D4434
:10053C00EB1A1FFA88F5B3FBF2F002FB103345EA15
:10054C00034500FB0CF3AB4207D9ED1900F1FF3862
:10055C006FD2AB426DD902383D44EB1A40EA0141EF
:10056C008FE7C1F1200722FA07F88B4005FA01F456
:10057C0048EA030320FA07FE4FEA134CFD404EEA0B
:10058C00040EB5FBFCF94FEA1E440CFB19551FFA7F
:10059C0083F844EA054509FB08F4AC4202FA01F27F
:1005AC0000FA01FA08D9ED1809F1FF3043D2AC4238
:1005BC0041D9A9F102091D442D1B1FFA8EFEB5FB72
:1005CC00FCF00CFB10554EEA054400FB08F8A04566
:1005DC0007D9E41800F1FF3529D2A04527D90238F4
:1005EC001C4440EA0940A4EB0804A0FB02894C45DA
:1005FC00C6464D4615D312D056B1BAEB0E0364EB7A
:10060C00050404FA07F7CB401F43CC4037607460F5
:10061C000021BDE8F0871846F8E69046E0E6C245B2
:10062C00EAD2B8EB020E69EB03050138E4E7284681
:10063C00D7E7404691E78146BEE7014678E70238A6
:10064C003C4445E7084608E7A8F102083D442BE77F
:10065C00704700BF00487047680000200048704792
:10066C006810002070B594B03022002108A803F067
:10067C0020F80024039404940594069407940194A0
:10068C001C4B1A6C42F080521A641B6C03F08053A2
:10069C000193019B0294184B1A6842F440421A6071
:1006AC001B6803F440430293029B012308934FF40D
:1006BC008033099302250E954FF480030F930F2678
:1006CC001096D823119312950423139308A802F0C3
:1006DC006BF902F075FD0396049505944FF4A05345
:1006EC0006934FF480530793052103A802F0A4FB53
:1006FC0014B070BD003802400070004010B502F01C
:10070C001FFEFFF7AFFF02F045FB0B4BA3FB0030C6
:10071C00800902F0D9FD00F01BF800F027F907481A
:10072C0000F046FFFFF796FF0446FFF797FF0146E0
:10073C00204601F015F810BDD34D6210E8360008C4
:10074C0008B500F01BFC00F0EFF800F025FC08BD2C
:10075C0030B587B000230093104B1A6B42F00202A5
:10076C001A631B6B03F002030093009B032301939A
:10077C000124029403940493094D01A9284602F024
:10078C000BFC22462146284602F000FD224602219F
:10079C00284602F0FBFC07B030BD00BF0038024019
:1007AC000004024070B40646043222F00705A5F19D
:1007BC004400002203E00E4C40F822400132102A83
:1007CC00F9D945F8201C002245F81C2C45F8182CAA
:1007DC0045F8142C45F8102C45F80C3C45F8086CE1
:1007EC004FF0807345F8043C45F8442C70BC7047BE
:1007FC00EFBEADDE10B504462F4B1B681BB1283085
:10080C009847002856D0616C2C4800F0E9FEA16A8C
:10081C002B4800F0E5FEE16A2A4800F0E1FE216B6E
:10082C00294800F0DDFE616B284800F0D9FEA16874
:10083C00274800F0D5FEE168264800F0D1FE21697A
:10084C00254800F0CDFE6169244800F0C9FEA1697D
:10085C00234800F0C5FEE169224800F0C1FE216A80
:10086C00214800F0BDFE616A204800F0B9FEA16B82
:10087C001F4800F0B5FEE16B1E4800F0B1FE216C84
:10088C001D4800F0ADFE236813F0040F0AD001F0F0
:10089C00A9FC0146194800F0A3FE236813F0100FC1
:1008AC0004D0FEE7164800F09BFEF6E7154800F072
:1008BC0097FEF6E710BD00BF68100020F036000868
:1008CC0000370008103700082037000830370008C0
:1008DC0040370008503700086037000870370008B0
:1008EC008037000890370008A0370008B0370008A0
:1008FC00C0370008D0370008E0370008F037000890
:10090C00103800082C38000890FAA0F3B3FA83F3DF
:10091C0008B94FF0FF33581C70470000014B1868A2
:10092C00704700BF6C10002008B50C4A13680133E7
:10093C00136001F057FC036C013B036413B101F02D
:10094C0033FF08BDC36B036490F8343043F00803E5
:10095C0080F8343001F0A3FCF1E700BF6C100020EC
:10096C0000207047002070470020704710B5044CE1
:10097C0002E054F8043B9847024B9C42F9D310BD5B
:10098C00904200089442000810B5044C02E054F860
:10099C00043B9847024B9C42F9D310BD944200088B
:1009AC009842000808B5FFF7EFFF01F0B9FF08BD4A
:1009BC0010B582B0142301930A2300934FF40073F3
:1009CC0000220849084801F041FC044620B12046A9
:1009DC0001F036FD02B010BDC8220449044800F0F5
:1009EC004BFEF4E7B1090008503800083C38000809
:1009FC005838000808B5FFF709FCFFF77FFE00F038
:100A0C001BFE01F01FFF01F0EFF9FFF7D1FF01F022
:100A1C0027FF00F073F901F075FA002008BD08B546
:100A2C00FFF7E8FF002008BDF8B5074601F0DAFB38
:100A3C0008B101F0F7FA092001F07AF8064668B11E
:100A4C007468331D9C4216D0A4F10C05082239465B
:100A5C00284600F0C3FB38B12468F2E77C220B492E
:100A6C000B4800F009FEEBE701F0BCFB50B101F0C4
:100A7C00E5FA2846F8BD01F0B5FB28B101F0DEFA25
:100A8C000020F8BD2846F8BD0020F8BD68380008E5
:100A9C00A838000870B50E460446C0B1204601F0D7
:100AAC0051F9092804D0F5222749284800F0E4FD23
:100ABC00E38A13F0100F18D1636AA3B1204698474C
:100ACC00054650B9E38A43F01003E3820EE0F422AA
:100ADC001D491F4800F0D0FDE0E7024621461D48A5
:100AEC0000F07EFD1DE00025ECE70025E38A13F005
:100AFC00080F03D0238B13F0080F21D1A36A93B1F5
:100B0C00314620469847054615B115F1060F08D118
:100B1C00238B43F008032383A37E0133DBB2A3763C
:100B2C003BB1284670BD26F0F0063605360D2683FF
:100B3C00EAE740F223120449074800F09DFDF0E774
:100B4C006FF00605EDE700BF783800081C39000887
:100B5C000C390008C0380008F838000810B50446F5
:100B6C00D8B1204601F0EEF8092805D04FF49B725D
:100B7C001149124800F080FDA37EBBB1013BDBB2F2
:100B8C00A376B3B9E36A7BB12046984710B110F154
:100B9C00060F0FD10023238310BD40F235120649F6
:100BAC00074800F069FDDCE70020EFE74FF0FF306D
:100BBC0010BD002010BD00BF883800081C3900088B
:100BCC000C3900082DE9F0410E46174698460446AC
:100BDC00A8B1204601F0B6F8092805D040F28712DA
:100BEC001149124800F048FDA37E7BB1656BA5B19D
:100BFC0043463A4631462046A847BDE8F0814FF4BB
:100C0C00C37209490A4800F037FDE2E74FF0FF30A4
:100C1C0000F094FA0020BDE8F0816FF0050000F0C0
:100C2C008DFA0020BDE8F081983800081C390008C6
:100C3C000C3900082B4B1A689A4251D070B51EE043
:100C4C00294D2946294800F0CBFCA02229462848EA
:100C5C0000F012FD1AE0284601F05EF8012832D0AF
:100C6C0001F0ECF93046FFF7D5FA606900F0BAFEF6
:100C7C00284601F021F81B4B1A689A422FD0FFF737
:100C8C00C5FA044600F096F90028D9D12046FFF7A2
:100C9C00C1FAFFF7BBFA0646124B1A689A421BD0F0
:100CAC001C68A4F11405236862685A6063682268A2
:100CBC001A606460246001F0B5F9E36D002BCAD0B2
:100CCC0028469847C7E7284600F088FF01F0B6F998
:100CDC003046FFF79FFA70BDFFF79CFA70BD70BDF0
:100CEC00704700BFDC1400208039000898390008D8
:100CFC00C039000808B5FFF79DFFFCE730B587B099
:100D0C0000240CB107B030BD22460F4904A800F0F6
:100D1C0041FCC4EB0412D3000C4D1D440C4B03EBF3
:100D2C004423202203921F2202924FF4007201925C
:100D3C0000930023074A04A9284601F021FA28460B
:100D4C0001F07EFB0134DCE7C43900087010002090
:100D5C00E8100020010D0008F8B50F4615461E4698
:100D6C00044678B1B5F5803F12D23A4602212046AE
:100D7C0000F0F0FE04F11403A3616361A5836672B5
:100D8C000020F8BDCC220549054800F075FCE9E7C8
:100D9C00CD220249034800F06FFCE6E7CC3900088D
:100DAC006C3A00087C3A00082DE9F04182B00191C0
:100DBC00064600284ED0304600F0C4FF022805D06D
:100DCC0040F24B124C494D4800F056FCFFF71EFA0E
:100DDC000746B38B002B44D1019B002B47D0FFF768
:100DEC0015FA044601F0FEF9002845D0FFF70EFA7B
:100DFC00054600F0DFF800284AD12846FFF70AFA2A
:100E0C002046FFF707FA01F0EDF9044600230363CF
:100E1C0006F1140596F8098001F046FAB8F1000FB6
:100E2C0043D0B8F1010F49D0019B002B09DD04F12F
:100E3C00440501AA0021284601F082FC284601F055
:100E4C00B9FB3846FFF7E6F901F072F8206B02B0F7
:100E5C00BDE8F0814FF4A5722749294800F00CFC3D
:100E6C00A9E7013BB383FFF7D5F90020EFE7FFF7C4
:100E7C00D1F96FF00100EAE71F4D2946214800F037
:100E8C00AFFB40F26B1229461F4800F0F5FBADE7B3
:100E9C00DFF8648041461D4800F0A2FB40F26B1263
:100EAC004146194800F0E8FBA7E704F114036A680F
:100EBC0013606A68A2616B606561B5E773699D42F6
:100ECC000FD094F8351093F82120914201D31B6870
:100EDC00F5E704F1140259680A605968A1615A6077
:100EEC0063619D42A0D104F114036A6813606A68BF
:100EFC00A2616B60656197E7D8390008F439000886
:100F0C006C3A0008903A0008C0390008983900087B
:100F1C0038B50446E0B1204600F014FF022805D095
:100F2C004FF4DC721249134800F0A6FBFFF76EF980
:100F3C00054604F114036069834210D0143801F0A3
:100F4C0041FA01242846FFF765F96CB9002038BD39
:100F5C0040F2B7120649084800F08EFBDBE7A38B82
:100F6C000133A3830024EDE700F0E2FFEEE700BFBE
:100F7C00E4390008F43900086C3A000808B5FFF7AA
:100F8C0045F9044A13780133DBB21370FFF742F9C9
:100F9C0008BD00BFE812002008B5FFF737F9044A76
:100FAC001378013BDBB21370FFF734F908BD00BFB7
:100FBC00E812002010B5FFF729F9034B1C78E4B2B6
:100FCC00FFF728F9204610BDE81200202DE9F04F5C
:100FDC0085B00F9E109F17F0400F19D0DFF8549179
:100FEC0017F0100F01D027F0010717F0010F12D0E6
:100FFC004FF0300E17F0020F14D0002A0EDB17F052
:10100C00040F26D117F0080F26D14FF0000C0BE07F
:10101C00DFF82491E4E74FF0200EEBE752424FF05B
:10102C002D0C01E04FF0000CBABB30238DF80030D2
:10103C000124B44233DC32460E9DAD1A17F0110F69
:10104C0039D1BCF1000F02D0002D00DD013D2B4643
:10105C0029E04FF02B0CE7E74FF0200CE4E7344D80
:10106C00A5FB02A5ED08AA4605EB85054FEA450B45
:10107C00A2EB0B0B524619F80B500DF1100A54440D
:10108C0004F8105C4446002AD3D004F101080A2B62
:10109C00E5D002F00F0B1209EDE70024F3E722462E
:1010AC00CAE701302B465D1E002B04DD8842F8D2C6
:1010BC0020230370F5E7BCF1000F05D0884201D264
:1010CC0080F800C0013D013017F0100F03D02B4603
:1010DC000BE001301D466B1E002D06DD8842F8D258
:1010EC0080F800E0F5E701302A46551EA24206DDE5
:1010FC008842F8D230220270F5E701301446621EA5
:10110C00002C0ADD4EB18842F7D204AC144414F81A
:10111C00104C0470F1E7013013465A1E002B04DD0D
:10112C008842F8D220230370F5E705B0BDE8F08FB4
:10113C00CDCCCCCCC83A0008A43B000810B5044672
:10114C00FFF738FF10B1054B1C6010BD01F04AF8D9
:10115C0008B1046310BD014B1C6010BDEC120020E3
:10116C0010B4032A05D9CCB210F0030F03D00346F8
:10117C0019E0034617E044EA042444EA0444034615
:10118C0005E01C605C609C60DC60103A10330F2A38
:10119C00F7D802E01C60043A0433032AFAD802E0C0
:1011AC00197001332246541E002AF9D15DF8044B04
:1011BC00704792B130B413460446621C4D1C09783A
:1011CC00217039B114462946013BF6D104E00021C7
:1011DC0011700132013BFAD130BC704700237AB157
:1011EC0030B404784D1C0B78E31A5BB22BB9013088
:1011FC001CB1013A2946002AF3D1184630BC70477D
:10120C0018467047034600E001331A78002AFBD1D8
:10121C00181A70472DE9F04F87B083460491144695
:10122C00059310EB010903D3C34304934FF0FF392B
:10123C005F4601E0013701342378002B00F09181E7
:10124C00252B03D04F45F5D23B70F3E7002502E088
:10125C0045F010051446621C63782D2BF8D02B2B0F
:10126C0008D0202B09D0232B0AD0302B0BD145F0E2
:10127C000105EFE745F00405ECE745F00805E9E763
:10128C0045F02005E6E7A3F13001092979D92A2B8D
:10129C0079D014464FF0FF360BE006EB8606730050
:1012AC0001325E18303E1178A1F13003092BF4D9CC
:1012BC00144623782E2B71D04FF0FF382378682BEF
:1012CC0000F098806C2B00F0958000222378253B51
:1012DC00532B00F21381DFE813F00101110111010E
:1012EC001101110111011101110111011101110162
:1012FC001101110111011101110111011101110152
:10130C001101110111011101110111011101110141
:10131C001101110111011101110111011101110131
:10132C001101110111011101110111011101110121
:10133C001101110111011101110111011101110111
:10134C000901110111011101110111011101110109
:10135C0011011101110190000D0111011101110177
:10136C0011010D01110111011101110111010701EF
:10137C00EB0011011101AF0011012001110111014C
:10138C00220100268FE70234059B1A1D05921E6868
:10139C00002E8EDA764245F010058AE7621C6378DF
:1013AC00A3F1300109291BD92A2B1CD014464FF06C
:1013BC00FF380EE008EB88084FEA4803013203EBD4
:1013CC000108A8F130081178A1F13003092BF1D9EB
:1013DC001446B8F1000FBFF671AF4FF000086DE77F
:1013EC004FF00008EFE70234059B1A1D0592D3F865
:1013FC000080EEE701341A4668E715F0100F09D0AB
:10140C00059B1A1D05921B784F4500D23B70013786
:10141C0009E00137013E002EF2DD4F45F9D22023C1
:10142C003B70F6E70137013E002E7FF704AF4F45C6
:10143C00F8D220233B70F5E7059B1A1D0592D3F8D3
:10144C0000A0BAF1000F0DD05046FFF7DBFEB8F14B
:10145C00000F02DD804500DA404615F0100F06D073
:10146C00002312E0DFF818A1EEE701371E46731EC9
:10147C00B04204DA4F45F8D220223A70F5E71E4606
:10148C00EEE701370AF1010A0133834207DA4F45CF
:10149C00F7D29AF800203A70F3E701371E46731E14
:1014AC00B042BFF6C8AE4F45F7D220223A70F4E7EF
:1014BC00B6F1FF3F0ED0059B1A1D05921A680295D6
:1014CC00CDF804800096102349463846FFF77EFD80
:1014DC000746B0E645F001050826ECE74F4501D27A
:1014EC0025233B700137A6E6082319E045F040059B
:1014FC00102315E045F002050A2311E04F4501D2F7
:10150C0025233B707A1C237823B1914500D97B703D
:10151C00023790E6013C17468DE60A2300E01023C3
:10152C006C2A0FD0682A12D0059A111D05911268E9
:10153C000295CDF80480009649463846FFF746FDE3
:10154C00074678E6059A111D05911268F0E7059A91
:10155C00111D059111688AB215F0020FE8D00AB27C
:10156C00E6E7049B23B14F4507D3002309F8013C60
:10157C00A7EB0B0007B0BDE8F08F00233B70F7E73B
:10158C009C3B000808B513460A464FF0FF31FFF7A5
:10159C0041FE08BD0EB400B582B003AA52F8041B7C
:1015AC000192FFF7EFFF02B05DF804EB03B0704758
:1015BC0038B5094B1D68FFF737FA58B10446064B8E
:1015CC00186808B1FFF7CAFA43212046FFF762FA00
:1015DC00014B1C60284638BDF012002070470000FB
:1015EC000FB430B583B006AB53F8042B01937F21B5
:1015FC000F48FFF70FFE7F2800D97F200D4B1C688A
:10160C008CB1258B45F0400323830346084A002107
:10161C002046FFF7D7FA074B1B681D8303B0BDE8C4
:10162C00304004B070470248FFF7D8FFF6E700BF20
:10163C00F4120020F012002000B583B00948FFF727
:10164C00CFFF0948FFF7CCFF084B00930223002281
:10165C0004210748FFF7C4FF0648FFF7C1FF03B09A
:10166C005DF804FB143B0008203B0008643B0008B9
:10167C00443B0008703B000810B582B000238DF885
:10168C000730084B1C6814B1A04702B010BD1346BC
:10169C000A4601460448FFF7A3FF9DF80730002BCC
:1016AC00FBD0F2E7CC130020DC3A000810B504465E
:1016BC00244B1B6883422DD8234B1B689C422FD292
:1016CC006388002B32D11F4B196862680A4494421C
:1016DC000FD053886BB91C4B1B689A4209D01B4B1B
:1016EC001B689A4228D05368636053680B44621A93
:1016FC009A60A3680B449C420BD05A884AB9134A8F
:10170C00126894421BD062685A6062680A445B1A81
:10171C00936010BDA1220E490E48FFF7ADFFCBE739
:10172C00A2220B490C48FFF7A7FFC9E7A3220849DF
:10173C000A48FFF7A1FFC6E7044B1C60D3E7034A36
:10174C001360E0E778130020741300209C13002032
:10175C00B83B0008EC3B00080C3C0008383C000887
:10176C002DE9F84306460F46C41C24F0030421F06F
:10177C000305FEF74BFD8046FFF71CFC78B940468D
:10178C00FEF748FD182D03D9A5F118039C4212D978
:10179C003A4631461848FFF723FFBDE8F883DFF8D7
:1017AC007C9049461548FFF71BFFD2224946144846
:1017BC00FFF762FFE3E72D1BA5F11802114B1A602E
:1017CC00114E34604FF4F55222800C3D65600023BD
:1017DC00A360638061190D480160625301224A8045
:1017EC004D608D600A490B48FFF7B6FA32680A4B18
:1017FC001A60BDE8F88300BF383E0008983900082D
:10180C00C0390008A41300207813002074130020A2
:10181C00303E00087C1300209C130020C43B0008C1
:10182C00002800F0BE80F8B50546FEF7EFFC044634
:10183C00FFF7C0FBC0B92046FEF7ECFC033525F0E2
:10184C0003055A4B1B689D4200F2AD800B2D00D84E
:10185C000C254FF0FF315648FFF7A6FA554B1E6882
:10186C00554B1B689B1B4CE0544E31465448FFF7BC
:10187C00B7FE4FF48C7231465248FFF7FDFEDAE7A3
:10188C0001236380A31BC31A4F4A11680B441360D6
:10189C004E4A1268934265D94C4A136062E05A680A
:1018AC00444B1B681344444A1360434B1B685A88CF
:1018BC001AB1474909688B42F1D1454909688B42F5
:1018CC0057D0002A55D04FF4C1723C494148FFF71C
:1018DC00D3FE4EE04FF4C37238493F48FFF7CCFEBD
:1018EC0050E040F2871235493C48FFF7C5FE4EE008
:1018FC004FF4C47231493A48FFF7BEFE2846F8BD92
:10190C0063682A4A1268511B8B4245D2F4186188CD
:10191C000029F5D16068C11A0C398D42F0D805F157
:10192C001807B942ACD3E9180C3170184FF4F557BD
:10193C0077520027478067684760836061600123A6
:10194C00638043680C32934201D0334499601E4A41
:10195C0013682B440C3313601C4A1268934201D950
:10196C001A4A13604FF4F5532380134B1B689C42A7
:10197C009BD00F48FFF7CCFA25440C35144B1B6851
:10198C009D42A7D804F10C0515F0030FA9D114F052
:10199C00030FADD12846F8BD0548FFF7B9FA002072
:1019AC00F8BD002070470020F8BD00BFA413002034
:1019BC007C130020781300209C130020D83B0008D7
:1019CC0098390008C0390008A8130020A013002083
:1019DC0074130020483D0008703D0008B43D000819
:1019EC00003E0008002800F0858070B50446FEF724
:1019FC000DFC0546FFF7DEFAE0B92846FEF70AFCB7
:101A0C0014F0030F22D13C4B1B689C4203D33B4B7D
:101A1C001B689C4205D340F22D2239493948FFF707
:101A2C002BFE354B1B689C4203D3344B1B689C42EA
:101A3C0013D370BD324E31463348FFF7D1FD40F21F
:101A4C00292231463148FFF717FED6E740F22B2208
:101A5C002B492F48FFF710FED5E7A4F10C054FF0EA
:101A6C00FF312C48FFF7A0F934F80A3C23B134F8C5
:101A7C000C3CB3F5F55F0AD02748FFF7B1FD34F8FD
:101A8C000C3C34F80A2C29462448FFF7A9FD34F8FD
:101A9C000A3C43B334F80C3CB3F5F55F05D04FF476
:101AAC00137217491E48FFF7E7FD002324F80A3C80
:101ABC004FF4F55324F80C3C1A4B1B689D4201D291
:101ACC00184B1D600C4B1B68EB1A54F8082C9B1A16
:101ADC0015490A6813440B602846FFF7E7FD0D48CB
:101AEC00FFF716FAA5E740F24B2205490F48FFF71E
:101AFC00C3FDCFE7704700BF78130020741300209C
:101B0C00E43B0008783C000898390008C03900080C
:101B1C00483C00087C130020D43C0008F03C000832
:101B2C002C3D00089C130020A8130020203D000829
:101B3C000023032B09DC1A0105498A5C824201D07F
:101B4C000133F6E701EB031070470020704700BF2C
:101B5C00000000202DE9F8430746884691460846C8
:101B6C00FFF7E6FF064618B100F05CFA746806E071
:101B7C00FB2217491748FFF77FFDF5E72468351D51
:101B8C00AC420BD0B4F10C03F8D0BB42F6D140F20E
:101B9C000B120F491048FFF76FFDEFE700F04EFAFC
:101BAC0068F07F0887F80880082249463846FFF716
:101BBC0000FBFEF72BFB07F10C0372685360726895
:101BCC00FA6073603D61FEF725FBBDE8F88300BF4A
:101BDC00743E0008A8380008303F000810B50446D1
:101BEC0080B100232372FEF711FB04F10C03E268B1
:101BFC00216951602269E16811602361E360FEF79D
:101C0C0009FB10BD4FF49C7202490348FFF734FDE9
:101C1C00E7E700BF843E00081C3F0008F8B5064605
:101C2C000F46FEF7F3FA0446FFF7C4F938BB20461B
:101C3C00FEF7F0FA3046FFF77BFF054658B3E8682D
:101C4C00FFF7EEFD044668B3EA680021FFF788FA57
:101C5C00267200236372082239462046FFF7A9FA40
:101C6C00FEF7D4FA2A1D04F10C0369684B6069680D
:101C7C00E1606B602261FEF7CDFA2046F8BD0A4D9B
:101C8C0029460A48FFF7ACFC40F25B12294608488B
:101C9C00FFF7F2FCCBE740F25F1203490548FFF770
:101CAC00EBFCCCE70024E8E7983E000898390008E4
:101CBC00C0390008A838000810B50446B8B194F92A
:101CCC000830002B1ADB00232372FEF79FFA04F175
:101CDC000C03E268216951602269E168116023619B
:101CEC00E360FEF797FA2046FFF77CFE10BD40F24A
:101CFC00991206490648FFF7BFFCE0E74FF4CD7296
:101D0C0002490448FFF7B8FCDDE700BFAC3E000811
:101D1C001C3F0008F03E000810B5044628B194F9A9
:101D2C000830002B08DB002010BD40F2BB12034929
:101D3C000348FFF7A1FCF2E7012010BDC03E0008EC
:101D4C001C3F000810B5044618B1207A00F07F0043
:101D5C0010BD4FF4E77202490248FFF78DFCF4E71F
:101D6C00DC3E00081C3F000810B50446054B186803
:101D7C00FEF7CAFD431E044A52F8330023601438A0
:101D8C0010BD00BFD8140020D013002010B504469D
:101D9C0060B1A36A1A78232A0ED021460E48FFF7A9
:101DAC001FFCFEF733FA0028FDD110BD53220B495E
:101DBC000B48FFF761FCECE7E2699A42EDD9E16A66
:101DCC0019448A42E9D820339A4200D910BD2146E1
:101DDC000448FFF705FCF9E7A83F0008403F00085E
:101DEC00943F0008C43F00080023094A138006E012
:101DFC00084901EBC302526041F8332001331F2B19
:101E0C00F6DD0022044B1A60044B5B601B607047CC
:101E1C00AC130020D0130020D8140020DC140020B8
:101E2C0010B5044610B3FEF7F1F9184B1B689C4231
:101E3C0023D094F9343023F0070343F0010384F8E2
:101E4C00343094F83520124B03EBC20304F1140226
:101E5C0059680A605968A1615A606361A16B0D4AA7
:101E6C0013680B431360FEF7D5F910BD4FF43272B3
:101E7C0009490A48FFF700FCD5E794F9343023F000
:101E8C00070343F0030384F83430ECE7D414002048
:101E9C00D0130020D81400205C3F0008943F0008A9
:101EAC0010B50446B8B1FEF7B1F904F11403626938
:101EBC00A1695160A26961691160A361636194F8C1
:101ECC0035200C4B03EBC20153F83230994209D048
:101EDC00FEF7A0F910BD40F2293207490748FFF779
:101EEC00CBFBE0E7A16B064A136823EA01031360FE
:101EFC00EEE700BFD0130020783F0008943F0008A5
:101F0C00D814002010B582B001A8FFF72DFF0446AD
:101F1C00064B1860FFF7C4FF032384F8343004F138
:101F2C001C00FEF7C0F902B010BD00BFD414002095
:101F3C0070B582B0FEF76AF90446354BB3F9003040
:101F4C0013B9344B1B6823B92046FEF763F902B072
:101F5C0070BD01A8FFF708FF05462F4B1E6896F8C9
:101F6C00343003F00702032A21D00023B54241D0BC
:101F7C009DF80410294A1170274A156063BB284646
:101F8C00FFF78EFF95F9343023F0070343F003037A
:101F9C0085F834302846FFF7F9FE214B1B78FBB14E
:101FAC0005F11C0106F11C00FEF737F9CCE796F899
:101FBC003510019A91420CD305D023F0080386F812
:101FCC0034300123D2E713F0080FF6D13546002345
:101FDC00CCE735460023C9E73046FFF721FFCEE7B3
:101FEC0005F11C0106F11C00FEF717F92046FEF75F
:101FFC0011F9ACE73046FFF753FF074B1A6892F91B
:10200C00343023F0070343F0030382F834309BE7AA
:10201C00AC130020D8140020D4140020D0140020BD
:10202C00E812002008B5FEF7F1F8034A13880133D3
:10203C001380FEF7EFF808BDAC13002008B5FEF7CF
:10204C00E5F80B4A1388013B1BB21380002B02DD11
:10205C00FEF7E0F808BD0022054B1A80FEF7DAF80F
:10206C00044B1B68002BF5D0FFF762FF08BD00BFC7
:10207C00AC130020D4140020F0B583B004460898AB
:10208C0009999DF828500B9E04F11407A76167610C
:10209C0022626362A062E1620A462321FFF760F8C4
:1020AC00A16AE36A1A1F144B0A44616A206AFEF79C
:1020BC0079FBE0611F2D18D884F8365084F8355020
:1020CC000025A563E6632664256384F834502567F0
:1020DC006567019500952346084A214604F14400A2
:1020EC0000F006FA284603B0F0BD952204490548D5
:1020FC00FFF7C2FAE0E700BFFD2100081521000838
:10210C00FC3F00087C40000810B5044648B394F826
:10211C00343003F00703022B05D040F22F32144960
:10212C001448FFF7A9FA2046FFF70CFE012805D04A
:10213C004FF44C720E491048FFF79EFA6FF00103F2
:10214C00236304F114036269A1695160A269616996
:10215C001160A36163612046FFF762FEFFF7E8FEA2
:10216C0010BD40F22E3202490448FFF785FACEE743
:10217C00684000080C41000848410008943F0008E2
:10218C002DE9F04184B00D46174698460A9E044648
:10219C00B0B1DEB12A4601212046FFF7DBFC0D9BD6
:1021AC0003939DF8303002930B9B019300964346AA
:1021BC003A4629462046FFF75FFF04B0BDE8F081A0
:1021CC00F22205490548FFF757FAE2E7F3220249E4
:1021DC000348FFF751FADDE70C400008943F000874
:1021EC00A0400008014B1868704700BFD4140020B1
:1021FC0038B5FFF7F7FF0446FEF708F8054620460A
:10220C00FFF74EFE042384F8343004F1440000F050
:10221C0091F92046FFF780FD01280DD004F114023E
:10222C00094B19684A6061611A60A361FFF780FE6F
:10223C002846FDF7EFFF38BD236F002BEED120466B
:10224C00FFF7CCFCF2E700BFDC1400202DE9F041D5
:10225C0084B005460F4690461E4601460120FFF706
:10226C00DDFCD0B104463046FFF7DAFA80B10B9AA8
:10227C0003929DF8282002920196009043463A461C
:10228C0029462046FFF7F8FE204604B0BDE8F08151
:10229C002046FFF711FD0024F6E70024F4E708B50B
:1022AC00FFF746FE002008BD70B5044658B3204623
:1022BC00FFF748FD012805D040F2D2221C491D48E9
:1022CC00FFF7DAF994F8345005F00705012D01D029
:1022DC00032D2AD1FDF79AFF0646032D1AD020466E
:1022EC00FFF7DEFD94F9343023F0070343F00203CB
:1022FC0084F8343004F1440000F0E4F93046FDF782
:10230C0089FF002070BD40F2D12209490A48FFF72D
:10231C00B3F9CCE7FFF766FF8442E0D040F2E3224A
:10232C0003490648FFF7A8F9D9E74FF0FF3070BD15
:10233C004040000848410008943F0008F040000865
:10234C0070B582B00190FFF74DFF044630B32046C4
:10235C00FFF7F8FC012805D04FF4F8721449154822
:10236C00FFF78AF9FDF752FF06462046FFF79CFF60
:10237C0004F1440501AA0021284600F0E1F92846A1
:10238C0000F018F93046FDF745FFFFF7D1FD236B40
:10239C0013F1020F09D0002002B070BD40F2EF1211
:1023AC0003490548FFF768F9D1E700232363F2E7F7
:1023BC003040000848410008943F000808B5FFF77A
:1023CC00BFFF08BD38B5044648B32046FFF7BAFC3A
:1023DC00012805D040F2023216491748FFF74CF994
:1023EC0094F8343003F00703022B1FD1FDF70EFFD6
:1023FC00054604F114036269A1695160A26961691F
:10240C001160A361636104F1440000F05BF928469C
:10241C00FDF700FF2046FFF703FD002038BD40F21A
:10242C00013204490548FFF727F9CEE74FF0FF309A
:10243C0038BD00BF5440000848410008943F0008D4
:10244C0010B5044618B394F8343013F0070F25D1A7
:10245C002046FFF777FC012805D04FF493721349FF
:10246C001348FFF709F994F8362084F83520012336
:10247C009340A363022384F834302046FFF7A2FF75
:10248C00FFF7B0FE08B1FFF753FD002010BD4FF46D
:10249C00927206490748FFF7EFF8D4E740F225128D
:1024AC0002490548FFF7E8F8D2E700BF1C400008D6
:1024BC0048410008943F0008B840000810B49DF84B
:1024CC00044024F001044472C16102620022826261
:1024DC0043621346002B02DD5DF8044B70479A1CD7
:1024EC0000EBC202111D916051600133F2E7000054
:1024FC00F0B583B00F4615461E46044678B13A46F1
:10250C000A212046FFF726FB9DF824300093089BF8
:10251C00324629462046FFF7D1FF03B0F0BDBA2260
:10252C0002490348FFF7A8F8E9E700BF8C4100080F
:10253C004842000870B50446C8B12046FFF702FCBB
:10254C000A2804D0D02217491748FFF795F82046DF
:10255C00FFF7E2FB88B1FDF759FE0022002A12DDDD
:10256C00FDF758FE2046FFF739FB002070BDCF2247
:10257C000C490E48FFF780F8DFE7D12209490C48D7
:10258C00FFF77AF8E7E7931C04EBC303191D5D68AA
:10259C009E686E609D685E682E609960596001321D
:1025AC00DCE700BF9C410008E041000848420008FD
:1025BC001C42000870B582B0044600283BD020466F
:1025CC00FFF7C0FB0A2805D040F2331236493748D2
:1025DC00FFF752F8FDF71AFE0022002A32DD637A6B
:1025EC0023F001036372FDF715FE626A304B9A42C9
:1025FC0036D8FEF793F9636A1844A062FDF706FE1D
:10260C002C4B01930021002936D02B4A136801333F
:10261C001360019B04F1140219684A601968616126
:10262C001A60A361637A43F001036372FDF7F2FD54
:10263C00002002B070BD4FF499721B491F48FFF780
:10264C001BF8BCE7931C04EBC303191D5D689E6863
:10265C006E609D685E682E60996059600132BCE7BF
:10266C0040F2431210491648FFF706F8C1E702ABD7
:10267C0003EB810343F8042C02AB03EB810353F807
:10268C00045CCB000B4A1A44526895420AD02A6863
:10269C001433D31A9B6AA56AAB42E8D05B1B044D7A
:1026AC00AB42E4D80131AEE7AC410008E041000890
:1026BC00FEFFFF7FB4130020B01300204842000837
:1026CC005C42000870B50446D8B12046FFF73AFBCF
:1026DC000A2805D04FF4D67216491748FEF7CCFFDE
:1026EC00637A13F0010F21D0FDF790FD0022002A30
:1026FC000EDDFDF78FFD637A23F00103637200207A
:10270C0070BD40F2AB120B490C48FEF7B5FFDCE78D
:10271C00931C04EBC303191D5D689E686E609D6875
:10272C005E682E60996059600132E0E74FF0FF302F
:10273C0070BD00BFBC410008E041000848420008E1
:10274C0070B50D461646044680B12046FFF7FAFADE
:10275C000A2805D040F2CF1210491148FEF78CFF21
:10276C00032D0CD8DFE805F00D0910154FF4E772B6
:10277C000A490C48FEF780FFE7E7636A33600020E4
:10278C0070BD33686362FAE7637A23F00203637205
:10279C00F5E7637A43F002036372F0E7CC4100087B
:1027AC00E041000848420008F8B5FEF7B7F80746C4
:1027BC00FDF72CFD064627E0A4F114028B1CDB0070
:1027CC001A440432234453F8100C53F80C7C476021
:1027DC0053F80C0C53F8107C076043F80C2C43F89E
:1027EC00102C01310029E7DDA368E0689847FEF75B
:1027FC0095F8074614F80B3C03F00302032A10D09B
:10280C0023F0010304F80B3C0C4B1C689C4210D0C9
:10281C00A4F114056069381A094B984209D80021B3
:10282C00E0E723F0010304F80B3C2846FFF7C2FE57
:10283C00EAE73046FDF7EEFCF8BD00BFB41300200C
:10284C00FEFFFF7F002303B17047044901EBC30275
:10285C00526041F833200133F5E700BFB413002078
:10286C00704700000268194B9A4200D07047184B11
:10287C001B8813F4004FF9D113F4804F0ED0154A76
:10288C0012780A2A03D00022114B1A8070476FEA83
:10289C0043436FEA53430E4A138070470D4A127834
:1028AC000D2A0DD0C3F30D010B48425401339BB2DA
:1028BC00074A1380C72BD9D90022054B1A80D5E7BC
:1028CC0043F48043024A1380704700BF001001405C
:1028DC00BC130020241500202815002010B50E482C
:1028EC0000F01EFE00240C4800F0B6FE202805D097
:1028FC000134B4F5003FF6D3002400E0002401229B
:10290C000649054800F07FFD20B10134B4F5003FC5
:10291C00F5D310BD10BD00BFE41400202415002019
:10292C0080B5084E01253560074C002727604FF411
:10293C00FA70FFF743FD376025604FF4FA70FFF72C
:10294C003DFDEEE7808240428482404270477047F2
:10295C00FEE7FEE7FEE77047704700000F49D1F82D
:10296C00883043F47003C1F888300D4B1A6842F07C
:10297C0001021A60002098601A6822F0847222F416
:10298C0080321A60074A5A601A6822F480221A6050
:10299C00D8604FF000638B60704700BF00ED00E023
:1029AC000038024010300024002800F0E48170B59B
:1029BC0082B00446036813F0010F3BD0A74B9B6811
:1029CC0003F00C03042B2CD0A44B9B6803F00C03DA
:1029DC00082B21D06368B3F5803F4FD0B3F5A02FFF
:1029EC0052D09E4B1A6822F480321A601A6822F474
:1029FC0080221A606368002B50D000F0BBFC0546A7
:102A0C00964B1B6813F4003F14D100F0B3FC401B31
:102A1C006428F5D90320B3E1904B5B6813F4800F65
:102A2C00D8D08E4B1B6813F4003F03D06368002B87
:102A3C0000F0A381236813F0020F55D0874B9B68DD
:102A4C0013F00C0F3ED0854B9B6803F00C03082B46
:102A5C0033D0E368002B68D00122814B1A6000F060
:102A6C0089FC05467D4B1B6813F0020F54D100F016
:102A7C0081FC401B0228F5D9032081E1774A1368B9
:102A8C0043F480331360B5E7744B1A6842F4802228
:102A9C001A601A6842F480321A60ABE700F06AFCE4
:102AAC0005466E4B1B6813F4003FC3D000F062FC6C
:102ABC00401B6428F5D9032062E1684B5B6813F472
:102ACC00800FC6D1654B1B6813F0020F04D0E3686E
:102ADC00012B01D0012053E1604A136823F0F80365
:102AEC00216943EAC1031360236813F0080F40D037
:102AFC00636963B301225B4B1A6000F03BFC054633
:102B0C00564B5B6F13F0020F33D100F033FC401BBC
:102B1C000228F5D9032033E1504A136823F0F80357
:102B2C00216943EAC1031360DEE700224C4B1A60B3
:102B3C0000F020FC0546494B1B6813F0020FD3D064
:102B4C0000F018FC401B0228F5D9032018E10022E4
:102B5C00444B1A6000F00EFC0546404B5B6F13F0C3
:102B6C00020F06D000F006FC401B0228F5D903200A
:102B7C0006E1236813F0040F79D0384B1B6C13F06B
:102B8C00805F33D100230193344B1A6C42F0805296
:102B9C001A641B6C03F080530193019B0125324B8B
:102BAC001B6813F4807F23D0A368012B34D0052B32
:102BBC0038D02A4B1A6F22F001021A671A6F22F0D2
:102BCC0004021A67A368002B36D000F0D3FB06462C
:102BDC00224B1B6F13F0020F48D100F0CBFB801B74
:102BEC0041F288339842F3D90320C9E00025D6E797
:102BFC001D4A136843F48073136000F0BBFB064658
:102C0C00194B1B6813F4807FCED100F0B3FB801BF3
:102C1C000228F5D90320B3E0104A136F43F00103E7
:102C2C001367CFE70D4B1A6F42F004021A671A6F45
:102C3C0042F001021A67C5E700F09CFB0646074B01
:102C4C001B6F13F0020F11D000F094FB801B41F2AC
:102C5C0088339842F3D9032092E000BF0038024039
:102C6C0000004742800E474200700040EDB9A36956
:102C7C00002B00F08480454A926802F00C02082A6E
:102C8C0051D0022B17D00022414B1A6000F072FB7E
:102C9C0004463E4B1B6813F0007F42D000F06AFBE9
:102CAC00001B0228F5D903206AE0384A136C23F084
:102CBC0080531364DBE70022354B1A6000F05AFB9B
:102CCC000546324B1B6813F0007F06D000F052FB18
:102CDC00401B0228F5D9032052E0E369226A134312
:102CEC00626A43EA8213A26A5208013A43EA024337
:102CFC00E26A43EA0263254A53600122244B1A60BC
:102D0C0000F038FB0446214B1B6813F0007F06D102
:102D1C0000F030FB001B0228F5D9032030E0002026
:102D2C002EE000202CE0012B2CD0184B9B6803F4D8
:102D3C008001E269914201D0012021E003F03F02C1
:102D4C00216A8A4201D001201AE0616A47F6C072FA
:102D5C001A408A4201D0012012E003F44032A16AE9
:102D6C008A4201D001200BE003F07063E26A9342C7
:102D7C000AD0012004E001207047012000E000206F
:102D8C0002B070BD0120FBE70020F9E700380240DB
:102D9C0060004742F8B5254B9B6803F00C03042BED
:102DAC0041D0082B01D02248F8BD204B5A6802F0C4
:102DBC003F025B6813F4800F12D01C4B5968C1F3AF
:102DCC00881100231B48A1FB0001FDF7BBFA174B30
:102DDC005B68C3F3014301335B00B0FBF3F0F8BD58
:102DEC00124B5B68C3F388131E4600275C01002559
:102DFC00E41A65EB0705A90141EA9461A001001BE7
:102E0C0061EB0501CB0043EA5073C400A01943EBFE
:102E1C0007018B0243EA9053840220461946002393
:102E2C00FDF790FAD3E70348F8BD00BF0038024025
:102E3C000024F40040787D01002800F09E8070B5DD
:102E4C000446504B1B6803F00F038B4209D2CBB2E4
:102E5C004C4A1370136803F00F03994201D0012000
:102E6C0070BD236813F0020F17D013F0040F04D0B9
:102E7C00454A936843F4E0539360236813F0080FBA
:102E8C0004D0414A936843F4604393603E4A93688C
:102E9C0023F0F003A068034393600D46236813F0FE
:102EAC00010F32D06368012B21D09A1E012A25D93B
:102EBC00354A126812F0020F61D033498A6822F049
:102ECC00030213438B6000F055FA06462E4B9B68A9
:102EDC0003F00C036268B3EB820F16D000F04AFAD1
:102EEC00801B41F288339842F0D9032070BD264AEA
:102EFC00126812F4003FE0D1012070BD224A126822
:102F0C0012F0007FD9D1012070BD1E4B1B6803F05D
:102F1C000F039D4209D2EAB21A4B1A701B6803F0D8
:102F2C000F039D4201D0012070BD236813F0040FE4
:102F3C0006D0154A936823F4E053E1680B43936081
:102F4C00236813F0080F07D00F4A936823F46043EB
:102F5C00216943EAC1039360FFF71CFF0A4B9B688E
:102F6C00C3F30313094AD35CD840094B1860094BCF
:102F7C00186800F0BFF9002070BD012070470120D7
:102F8C0070BD00BF003C0240003802408042000887
:102F9C00400000204800002000230F2B00F2EB80A3
:102FAC00F0B583B050E04FEAD30C0CF1080C50F89C
:102FBC002C5003F0070E4FEA8E0E0F2606FA0EF673
:102FCC0025EA06050E6906FA0EF6354340F82C5034
:102FDC006FE0092600E0002606FA0EF635430232B1
:102FEC00654E46F82250654A1568E24305EA02062A
:102FFC004F6817F4803F01D044EA05065F4D2E6000
:10300C006D6802EA05064F6817F4003F01D044EAE8
:10301C0005065A4D6E60AD6802EA05064F6817F456
:10302C00801F01D044EA0506544DAE60ED682A407D
:10303C004E6816F4001F01D044EA05024F4CE260C2
:10304C0001330F2B00F2958001229A400C6814403A
:10305C00A242F5D14D686E1E012E03D9112D01D05F
:10306C00122D15D185684FEA430E032707FA0EF788
:10307C0025EA0705CE6806FA0EF6354385604568E5
:10308C0025EA02024D68C5F300159D402A434260B3
:10309C00C6685F000322BA40D24316408D68BD401B
:1030AC002E43C6604D68022D3FF47DAF122D3FF4C8
:1030BC007AAF05682A404D6805F00305BD402A43E8
:1030CC0002604A6812F0805FBAD0002201922C4A4A
:1030DC00556C45F480455564526C02F48042019263
:1030EC00019A9A08961C244D55F8265003F00306B5
:1030FC004FEA860E0F2606FA0EF625EA0605214F34
:10310C00B8423FF468AF204EB04222D006F580663C
:10311C00B04220D006F58066B0421ED006F580661F
:10312C00B0421CD006F58066B0421AD006F5806617
:10313C00B04218D006F58066B04216D006F580660F
:10314C00B04214D006F58066B0423FF442AF0A2676
:10315C0042E7012640E702263EE703263CE7042629
:10316C003AE7052638E7062636E7072634E7082629
:10317C0032E703B0F0BD704700380140003C01401D
:10318C0000380240000002400004024012B9090459
:10319C00816170478161704790F83530DBB2022B4A
:1031AC0003D08023436501207047052380F8353018
:1031BC000268136823F001031360002070470000BD
:1031CC0010B582B000230193194B1A6C42F0805257
:1031DC001A641B6C03F080530193019B0122154B65
:1031EC001A6000F0C7F80446134B5B6813F4803F79
:1031FC0008D100F0BFF8001BB0F57A7FF4D903209A
:10320C0002B010BD01220D4B1A6000F0B3F8044659
:10321C00094B5B6813F4003F07D100F0ABF8001BBF
:10322C00B0F57A7FF4D90320EAE70020E8E700BF85
:10323C000038024040000E420070004044000E4234
:10324C00074AD36823F4E0631B041B0C000200F450
:10325C00E060184340F0BF6040F40030D06070472D
:10326C0000ED00E030B4164BDB68C3F30223C3F16E
:10327C000704042C28BF04241D1D062D17D9033B5D
:10328C00012505FA04F4013C2140994005FA03F3A9
:10329C00013B1340194300280BDB0901C9B200F1B3
:1032AC00604000F5614080F8001330BC704700238B
:1032BC00E6E700F00F000901C9B2024B1954F4E71C
:1032CC0000ED00E014ED00E00138B0F1807F0AD28F
:1032DC00064B5860F021064A82F8231000209860B3
:1032EC0007221A6070470120704700BF10E000E011
:1032FC0000ED00E010B504460E4B18784FF47A73CD
:10330C00B3FBF0F30C4A1068B0FBF3F0FFF7DCFFF3
:10331C0068B90F2C01D9012010BD002221464FF0B5
:10332C00FF30FFF79FFF054B1C60002010BD0120F4
:10333C0010BD00BF440000204000002048000020C9
:10334C0008B50B4B1A6842F400721A601A6842F402
:10335C0080621A601A6842F480721A600320FFF7C8
:10336C006FFF0020FFF7C6FFFFF7F0FA002008BD43
:10337C00003C0240014B1868704700BFF01500205C
:10338C000268D36823F49073D3600268536923F006
:10339C0001035361202380F83A30704790F839309C
:1033AC00DBB2212B01D0022070478368B3F5805F1C
:1033BC0017D00268036A591C01621B785360C38CD6
:1033CC009BB2013B9BB2C384DBB90268D36823F088
:1033DC008003D3600268D36843F04003D3600020BD
:1033EC007047036A02681B88C3F3080353600369C0
:1033FC001BB9036A02330362E1E7036A0133036218
:10340C00DDE70020704790F83A30DBB2202B01D07A
:10341C0002207047F9B102B390F83830012B1ED05E
:10342C0081628285C2850023C363222280F83A2000
:10343C0080F838300168CA6842F48072CA6001684A
:10344C004A6942F001024A610168CA6842F02002EE
:10345C00CA6018467047012070470120704702204F
:10346C007047704708B50168CB6823F04003CB6008
:10347C00202380F83930FFF7F4FF002008BD08B591
:10348C0090F83A30DBB2222B01D0022008BD8368C1
:10349C00B3F5805F0FD003690BBB836A5A1C826241
:1034AC00026852681A70C38D9BB2013B9BB2C385F4
:1034BC00F3B1002008BD826A036943B903685B68F5
:1034CC00C3F308031380836A02338362EBE7036858
:1034DC005B68DBB21380836A01338362E3E7826A41
:1034EC00531C836203685B6803F07F031370DAE795
:1034FC000268D36823F02003D3600268D36823F4F6
:10350C008073D3600268536923F001035361202355
:10351C0080F83A30FFF7A6F9002008BD704700008C
:10352C0010B5044602681368D168526913F00F0095
:10353C0005D113F0200F02D011F0200F56D1002826
:10354C006AD012F0010202D111F4907F64D013F012
:10355C00010F06D011F4807F03D0E06B40F0010026
:10356C00E06313F0040F04D01AB1E06B40F00200DA
:10357C00E06313F0020F04D01AB1E06B40F00400CA
:10358C00E06313F0080F07D011F0200F00D11AB12F
:10359C00E26B42F00802E263E26B002A48D013F0BF
:1035AC00200F02D011F0200F24D123685B6903F0A7
:1035BC004003E26B12F0080F00D13BB32046FFF73B
:1035CC00DFFE23685A6912F0400F1BD05A6922F0B3
:1035DC0040025A61636B8BB11A4A1A65606BFFF734
:1035EC00DBFD28B3606B036D984710BD2046FFF7D9
:1035FC0046FF10BD2046FFF742FFD6E72046FFF7F7
:10360C008DFF10BD2046FFF789FF10BD2046FFF748
:10361C0085FF0023E36310BD13F0800F02D011F07F
:10362C00800F06D113F0400F02D011F0400F04D1DF
:10363C0010BD2046FFF7B2FE10BD2046FFF712FF6B
:10364C00F6E700BF5536000808B5806B0023C3852C
:10365C00C384FFF763FF08BD90F8393090F83A0047
:10366C0018437047DFF830D0002103E00B4B5B5858
:10367C00435004310A480B4B42189A42F6D30A4A7B
:10368C0002E0002342F8043B084B9A42F9D3FFF7BF
:10369C0065F9FDF7C4F9704700000320AC4200083F
:1036AC00000000204C0000204C000020F4150020ED
:1036BC00FEE702440346934200D1704703F8011B16
:1036CC00F9E70000F8B500BFF8BC08BC9E4670478F
:0C36DC00F8B500BFF8BC08BC9E46704763
:1036E80075617274310000007073723A2030782569
:1036F8003038780A000000007230303A20307825DF
:103708003038780A000000007230313A20307825CD
:103718003038780A000000007230323A20307825BC
:103728003038780A000000007230333A20307825AB
:103738003038780A000000007230343A203078259A
:103748003038780A000000007230353A2030782589
:103758003038780A000000007230363A2030782578
:103768003038780A000000007230373A2030782567
:103778003038780A000000007230383A2030782556
:103788003038780A000000007230393A2030782545
:103798003038780A000000007231303A203078253D
:1037A8003038780A000000007231313A203078252C
:1037B8003038780A000000007231323A203078251B
:1037C8003038780A00000000206C723A20307825E2
:1037D8003038780A000000002070633A20307825DD
:1037E8003038780A000000006861726420666175EC
:1037F8006C74206F6E207468726561643A2025735A
:103808000D0A0D0A00000000686172642066617587
:103818006C74206F6E2068616E646C65720D0A0DA1
:103828000A00000046505520616374697665210DD1
:103838000A00000072745F6170706C69636174697A
:103848006F6E5F696E6974006D61696E00000000DB
:1038580074696420213D2052545F4E554C4C000041
:1038680072745F6465766963655F66696E6400009B
:1038780072745F6465766963655F6F70656E00007A
:1038880072745F6465766963655F636C6F73650006
:1038980072745F6465766963655F777269746500E1
:1038A800696E666F726D6174696F6E20213D20527A
:1038B800545F4E554C4C0000546F20696E69746912
:1038C800616C697A65206465766963653A25732059
:1038D8006661696C65642E20546865206572726F34
:1038E8007220636F64652069732025640A000000F4
:1038F8006465762D3E7265665F636F756E74202110
:103908003D20300064657620213D2052545F4E559D
:103918004C4C000072745F6F626A6563745F676520
:10392800745F7479706528266465762D3E706172BF
:10393800656E7429203D3D2052545F4F626A65636D
:10394800745F436C6173735F4465766963650000F7
:1039580072745F6F626A6563745F69735F737973AA
:1039680074656D6F626A65637428266465762D3E9A
:10397800706172656E74290072745F746872656133
:10398800645F69646C655F657863757465000000E1
:1039980046756E6374696F6E5B25735D207368612D
:1039A8006C6C206E6F742062652075736564206985
:1039B8006E204953520A0000300000007469646C9C
:1039C8006525640072745F73656D5F696E69740064
:1039D80072745F73656D5F74616B650072745F7399
:1039E800656D5F72656C65617365000072745F6F09
:1039F800626A6563745F6765745F747970652826A9
:103A080073656D2D3E706172656E742E706172659E
:103A18006E7429203D3D2052545F4F626A6563747D
:103A28005F436C6173735F53656D6170686F726536
:103A38000000000072745F6F626A6563745F697387
:103A48005F73797374656D6F626A65637428267332
:103A5800656D2D3E706172656E742E706172656E53
:103A68007429000073656D20213D2052545F4E5526
:103A78004C4C000076616C7565203C203078313004
:103A8800303030550000000046756E6374696F6E03
:103A98005B25735D207368616C6C206E6F742062A7
:103AA800652075736564206265666F72652073634F
:103AB800686564756C65722073746172740A0000BD
:103AC800303132333435363738394142434445464C
:103AD80000000000282573292061737365727469DA
:103AE8006F6E206661696C65642061742066756E0E
:103AF8006374696F6E3A25732C206C696E65206E4D
:103B0800756D6265723A2564200A00000A205C20FF
:103B18007C202F0A000000002D205254202D202048
:103B2800202020546872656164204F70657261744A
:103B3800696E672053797374656D0A00202F207CA5
:103B4800205C202020202025642E25642E2564203A
:103B58006275696C642025730A000000466562205E
:103B680032302032303230002032303036202D20B2
:103B78003230313920436F70797269676874206216
:103B8800792072742D746872656164207465616D42
:103B98000A000000284E554C4C29000030313233C1
:103BA8003435363738396162636465660000000071
:103BB800706C75675F686F6C6573000072745F7313
:103BC800797374656D5F686561705F696E697400AB
:103BD80072745F6D616C6C6F6300000072745F6675
:103BE800726565002872745F75696E74385F742039
:103BF8002A296D656D203E3D20686561705F70748F
:103C0800720000002872745F75696E74385F7420E2
:103C18002A296D656D203C202872745F75696E7461
:103C2800385F74202A29686561705F656E640000DA
:103C38006D656D2D3E75736564203D3D2030000037
:103C480028282872745F75626173655F7429726DC4
:103C5800656D292026202852545F414C49474E5F04
:103C680053495A45202D20312929203D3D20300037
:103C78002872745F75696E74385F74202A29726DB2
:103C8800656D203E3D202872745F75696E74385FDB
:103C980074202A29686561705F7074722026262056
:103CA8002872745F75696E74385F74202A29726D82
:103CB800656D203C202872745F75696E74385F7476
:103CC800202A29686561705F656E6400746F2066DC
:103CD800726565206120626164206461746120629C
:103CE8006C6F636B3A0A00006D656D3A2030782579
:103CF8003038782C207573656420666C61673A20CB
:103D080025642C206D6167696320636F64653A20C0
:103D18003078253034780A006D656D2D3E757365F1
:103D2800640000006D656D2D3E6D61676963203D1F
:103D38003D20484541505F4D414749430000000040
:103D480028286C66726565203D3D20686561705F56
:103D5800656E6429207C7C2028216C667265652D3F
:103D68003E757365642929002872745F75626173F2
:103D7800655F74296D656D202B2053495A454F4660
:103D88005F5354525543545F4D454D202B20736962
:103D98007A65203C3D202872745F75626173655FA7
:103DA8007429686561705F656E6400002872745FCD
:103DB80075626173655F7429282872745F75696E0E
:103DC80074385F74202A296D656D202B2053495A59
:103DD800454F465F5354525543545F4D454D292036
:103DE800252052545F414C49474E5F53495A45205C
:103DF8003D3D20300000000028282872745F75625D
:103E08006173655F74296D656D29202620285254D9
:103E18005F414C49474E5F53495A45202D2031296F
:103E280029203D3D203000006865617000000000D9
:103E38006D656D20696E69742C206572726F7220D1
:103E4800626567696E206164647265737320307897
:103E580025782C20616E6420656E6420616464722C
:103E680065737320307825780A00000072745F6FDC
:103E7800626A6563745F696E6974000072745F6F6B
:103E8800626A6563745F646574616368000000005A
:103E980072745F6F626A6563745F616C6C6F636193
:103EA8007465000072745F6F626A6563745F64654D
:103EB8006C6574650000000072745F6F626A656308
:103EC800745F69735F73797374656D6F626A656334
:103ED8007400000072745F6F626A6563745F67657F
:103EE800745F74797065000021286F626A65637475
:103EF8002D3E7479706520262052545F4F626A65A2
:103F080063745F436C6173735F537461746963298D
:103F1800000000006F626A65637420213D205254DE
:103F28005F4E554C4C0000006F626A20213D206FA7
:103F3800626A6563740000005F72745F736368652A
:103F480064756C65725F737461636B5F63686563E6
:103F58006B00000072745F7363686564756C655FFD
:103F6800696E736572745F746872656164000000DD
:103F780072745F7363686564756C655F72656D6F95
:103F880076655F74687265616400000074687265C4
:103F9800616420213D2052545F4E554C4C00000076
:103FA8007468726561643A257320737461636B2069
:103FB8006F766572666C6F770A0000007761726EC3
:103FC800696E673A20257320737461636B20697387
:103FD80020636C6F736520746F20656E64206F6654
:103FE80020737461636B20616464726573732E0A55
:103FF800000000005F72745F7468726561645F69D5
:104008006E69740072745F7468726561645F696E6A
:104018006974000072745F7468726561645F7374B8
:10402800617274757000000072745F746872656103
:10403800645F736C6565700072745F746872656143
:10404800645F73757370656E6400000072745F74EA
:1040580068726561645F726573756D650000000064
:1040680072745F7468726561645F74696D656F7599
:10407800740000007072696F72697479203C205274
:10408800545F5448524541445F5052494F52495435
:10409800595F4D4158000000737461636B5F73741E
:1040A80061727420213D2052545F4E554C4C0000E3
:1040B800287468726561642D3E73746174202620CB
:1040C80052545F5448524541445F535441545F4DE4
:1040D80041534B29203D3D2052545F54485245419D
:1040E800445F494E49540000746872656164203D1C
:1040F8003D2072745F7468726561645F73656C6695
:1041080028290000287468726561642D3E73746103
:104118007420262052545F5448524541445F5354FA
:1041280041545F4D41534B29203D3D2052545F542B
:1041380048524541445F53555350454E4400000092
:1041480072745F6F626A6563745F6765745F7479C0
:104158007065282872745F6F626A6563745F74297A
:1041680074687265616429203D3D2052545F4F6236
:104178006A6563745F436C6173735F5468726561E9
:104188006400000072745F74696D65725F696E69BE
:104198007400000072745F74696D65725F646574A1
:1041A8006163680072745F74696D65725F737461CE
:1041B8007274000072745F74696D65725F73746FF6
:1041C8007000000072745F74696D65725F636F6E72
:1041D80074726F6C0000000072745F6F626A6563CE
:1041E800745F6765745F74797065282674696D6596
:1041F800722D3E706172656E7429203D3D205254C7
:104208005F4F626A6563745F436C6173735F54697F
:104218006D65720072745F6F626A6563745F69735B
:104228005F73797374656D6F626A65637428267449
:10423800696D65722D3E706172656E7429000000AB
:1042480074696D657220213D2052545F4E554C4C67
:104258000000000074696D65722D3E696E69745FB7
:104268007469636B203C2052545F5449434B5F4D43
:104278004158202F203200000000000000000000FC
:08428800010203040607080906
:044290006D090008AC
:0442940071090008A4
:04429800750900089C
:08429C00E4C0FF7F01000000F7
:0442A400D10100083C
:0442A800AD0100085C
:1042AC000100000004000020040000207800000041
:1042BC000200000014000020140000202000000068
:1042CC000900000024000020240000204000000011
:1042DC000A00000034000020340000202C000000F4
:0C42EC000024F40001000000100000009D
:040000050800367148
:00000001FF
